{"abi":[{"inputs":[{"internalType":"string","name":"name","type":"string"},{"internalType":"address","name":"creator","type":"address"}],"stateMutability":"nonpayable","type":"constructor"},{"inputs":[{"internalType":"string","name":"name","type":"string"},{"internalType":"string","name":"description","type":"string"},{"internalType":"string","name":"url","type":"string"}],"name":"addCandidate","outputs":[],"stateMutability":"nonpayable","type":"function"},{"inputs":[],"name":"admin","outputs":[{"internalType":"address","name":"","type":"address"}],"stateMutability":"view","type":"function"},{"inputs":[],"name":"candidateCount","outputs":[{"internalType":"uint256","name":"","type":"uint256"}],"stateMutability":"view","type":"function"},{"inputs":[{"internalType":"uint256","name":"","type":"uint256"}],"name":"candidates","outputs":[{"internalType":"string","name":"name","type":"string"},{"internalType":"string","name":"description","type":"string"},{"internalType":"string","name":"url","type":"string"},{"internalType":"uint256","name":"votes","type":"uint256"}],"stateMutability":"view","type":"function"},{"inputs":[],"name":"electionName","outputs":[{"internalType":"string","name":"","type":"string"}],"stateMutability":"view","type":"function"},{"inputs":[],"name":"endElection","outputs":[],"stateMutability":"nonpayable","type":"function"},{"inputs":[],"name":"ended","outputs":[{"internalType":"bool","name":"","type":"bool"}],"stateMutability":"view","type":"function"},{"inputs":[],"name":"startElection","outputs":[],"stateMutability":"nonpayable","type":"function"},{"inputs":[],"name":"started","outputs":[{"internalType":"bool","name":"","type":"bool"}],"stateMutability":"view","type":"function"},{"inputs":[{"internalType":"uint256","name":"id","type":"uint256"}],"name":"voteCandidate","outputs":[],"stateMutability":"nonpayable","type":"function"},{"inputs":[{"internalType":"address","name":"","type":"address"}],"name":"voters","outputs":[{"internalType":"bool","name":"","type":"bool"}],"stateMutability":"view","type":"function"}],"devdoc":{"kind":"dev","methods":{},"version":1},"evm":{"assembly":"    /* \"Election.sol\":1187:3318  contract Election {... */\n  mstore(0x40, 0x80)\n    /* \"Election.sol\":2047:2157  constructor(string memory name, address creator) {... */\n  callvalue\n  dup1\n  iszero\n  tag_1\n  jumpi\n  0x00\n  dup1\n  revert\ntag_1:\n  pop\n  mload(0x40)\n  sub(codesize, bytecodeSize)\n  dup1\n  bytecodeSize\n  dup4\n  codecopy\n  dup2\n  dup2\n  add\n  0x40\n  mstore\n  dup2\n  add\n  swap1\n  tag_2\n  swap2\n  swap1\n  tag_3\n  jump\t// in\ntag_2:\n    /* \"Election.sol\":2114:2121  creator */\n  dup1\n    /* \"Election.sol\":2106:2111  admin */\n  0x02\n  0x00\n    /* \"Election.sol\":2106:2121  admin = creator */\n  0x0100\n  exp\n  dup2\n  sload\n  dup2\n  0xffffffffffffffffffffffffffffffffffffffff\n  mul\n  not\n  and\n  swap1\n  dup4\n  0xffffffffffffffffffffffffffffffffffffffff\n  and\n  mul\n  or\n  swap1\n  sstore\n  pop\n    /* \"Election.sol\":2146:2150  name */\n  dup2\n    /* \"Election.sol\":2131:2143  electionName */\n  0x04\n    /* \"Election.sol\":2131:2150  electionName = name */\n  swap1\n  dup1\n  mload\n  swap1\n  0x20\n  add\n  swap1\n  tag_6\n  swap3\n  swap2\n  swap1\n  tag_7\n  jump\t// in\ntag_6:\n  pop\n    /* \"Election.sol\":2047:2157  constructor(string memory name, address creator) {... */\n  pop\n  pop\n    /* \"Election.sol\":1187:3318  contract Election {... */\n  jump(tag_8)\ntag_7:\n  dup3\n  dup1\n  sload\n  tag_9\n  swap1\n  tag_10\n  jump\t// in\ntag_9:\n  swap1\n  0x00\n  mstore\n  keccak256(0x00, 0x20)\n  swap1\n  0x1f\n  add\n  0x20\n  swap1\n  div\n  dup2\n  add\n  swap3\n  dup3\n  tag_12\n  jumpi\n  0x00\n  dup6\n  sstore\n  jump(tag_11)\ntag_12:\n  dup3\n  0x1f\n  lt\n  tag_13\n  jumpi\n  dup1\n  mload\n  not(0xff)\n  and\n  dup4\n  dup1\n  add\n  or\n  dup6\n  sstore\n  jump(tag_11)\ntag_13:\n  dup3\n  dup1\n  add\n  0x01\n  add\n  dup6\n  sstore\n  dup3\n  iszero\n  tag_11\n  jumpi\n  swap2\n  dup3\n  add\ntag_14:\n  dup3\n  dup2\n  gt\n  iszero\n  tag_15\n  jumpi\n  dup3\n  mload\n  dup3\n  sstore\n  swap2\n  0x20\n  add\n  swap2\n  swap1\n  0x01\n  add\n  swap1\n  jump(tag_14)\ntag_15:\ntag_11:\n  pop\n  swap1\n  pop\n  tag_16\n  swap2\n  swap1\n  tag_17\n  jump\t// in\ntag_16:\n  pop\n  swap1\n  jump\t// out\ntag_17:\ntag_18:\n  dup1\n  dup3\n  gt\n  iszero\n  tag_19\n  jumpi\n  0x00\n  dup2\n  0x00\n  swap1\n  sstore\n  pop\n  0x01\n  add\n  jump(tag_18)\ntag_19:\n  pop\n  swap1\n  jump\t// out\n    /* \"#utility.yul\":7:82   */\ntag_20:\n    /* \"#utility.yul\":40:46   */\n  0x00\n    /* \"#utility.yul\":73:75   */\n  0x40\n    /* \"#utility.yul\":67:76   */\n  mload\n    /* \"#utility.yul\":57:76   */\n  swap1\n  pop\n    /* \"#utility.yul\":7:82   */\n  swap1\n  jump\t// out\n    /* \"#utility.yul\":88:205   */\ntag_21:\n    /* \"#utility.yul\":197:198   */\n  0x00\n    /* \"#utility.yul\":194:195   */\n  dup1\n    /* \"#utility.yul\":187:199   */\n  revert\n    /* \"#utility.yul\":211:328   */\ntag_22:\n    /* \"#utility.yul\":320:321   */\n  0x00\n    /* \"#utility.yul\":317:318   */\n  dup1\n    /* \"#utility.yul\":310:322   */\n  revert\n    /* \"#utility.yul\":334:451   */\ntag_23:\n    /* \"#utility.yul\":443:444   */\n  0x00\n    /* \"#utility.yul\":440:441   */\n  dup1\n    /* \"#utility.yul\":433:445   */\n  revert\n    /* \"#utility.yul\":457:574   */\ntag_24:\n    /* \"#utility.yul\":566:567   */\n  0x00\n    /* \"#utility.yul\":563:564   */\n  dup1\n    /* \"#utility.yul\":556:568   */\n  revert\n    /* \"#utility.yul\":580:682   */\ntag_25:\n    /* \"#utility.yul\":621:627   */\n  0x00\n    /* \"#utility.yul\":672:674   */\n  0x1f\n    /* \"#utility.yul\":668:675   */\n  not\n    /* \"#utility.yul\":663:665   */\n  0x1f\n    /* \"#utility.yul\":656:661   */\n  dup4\n    /* \"#utility.yul\":652:666   */\n  add\n    /* \"#utility.yul\":648:676   */\n  and\n    /* \"#utility.yul\":638:676   */\n  swap1\n  pop\n    /* \"#utility.yul\":580:682   */\n  swap2\n  swap1\n  pop\n  jump\t// out\n    /* \"#utility.yul\":688:868   */\ntag_26:\n    /* \"#utility.yul\":736:813   */\n  0x4e487b7100000000000000000000000000000000000000000000000000000000\n    /* \"#utility.yul\":733:734   */\n  0x00\n    /* \"#utility.yul\":726:814   */\n  mstore\n    /* \"#utility.yul\":833:837   */\n  0x41\n    /* \"#utility.yul\":830:831   */\n  0x04\n    /* \"#utility.yul\":823:838   */\n  mstore\n    /* \"#utility.yul\":857:861   */\n  0x24\n    /* \"#utility.yul\":854:855   */\n  0x00\n    /* \"#utility.yul\":847:862   */\n  revert\n    /* \"#utility.yul\":874:1155   */\ntag_27:\n    /* \"#utility.yul\":957:984   */\n  tag_47\n    /* \"#utility.yul\":979:983   */\n  dup3\n    /* \"#utility.yul\":957:984   */\n  tag_25\n  jump\t// in\ntag_47:\n    /* \"#utility.yul\":949:955   */\n  dup2\n    /* \"#utility.yul\":945:985   */\n  add\n    /* \"#utility.yul\":1087:1093   */\n  dup2\n    /* \"#utility.yul\":1075:1085   */\n  dup2\n    /* \"#utility.yul\":1072:1094   */\n  lt\n    /* \"#utility.yul\":1051:1069   */\n  0xffffffffffffffff\n    /* \"#utility.yul\":1039:1049   */\n  dup3\n    /* \"#utility.yul\":1036:1070   */\n  gt\n    /* \"#utility.yul\":1033:1095   */\n  or\n    /* \"#utility.yul\":1030:1118   */\n  iszero\n  tag_48\n  jumpi\n    /* \"#utility.yul\":1098:1116   */\n  tag_49\n  tag_26\n  jump\t// in\ntag_49:\n    /* \"#utility.yul\":1030:1118   */\ntag_48:\n    /* \"#utility.yul\":1138:1148   */\n  dup1\n    /* \"#utility.yul\":1134:1136   */\n  0x40\n    /* \"#utility.yul\":1127:1149   */\n  mstore\n    /* \"#utility.yul\":917:1155   */\n  pop\n    /* \"#utility.yul\":874:1155   */\n  pop\n  pop\n  jump\t// out\n    /* \"#utility.yul\":1161:1290   */\ntag_28:\n    /* \"#utility.yul\":1195:1201   */\n  0x00\n    /* \"#utility.yul\":1222:1242   */\n  tag_51\n  tag_20\n  jump\t// in\ntag_51:\n    /* \"#utility.yul\":1212:1242   */\n  swap1\n  pop\n    /* \"#utility.yul\":1251:1284   */\n  tag_52\n    /* \"#utility.yul\":1279:1283   */\n  dup3\n    /* \"#utility.yul\":1271:1277   */\n  dup3\n    /* \"#utility.yul\":1251:1284   */\n  tag_27\n  jump\t// in\ntag_52:\n    /* \"#utility.yul\":1161:1290   */\n  swap2\n  swap1\n  pop\n  jump\t// out\n    /* \"#utility.yul\":1296:1604   */\ntag_29:\n    /* \"#utility.yul\":1358:1362   */\n  0x00\n    /* \"#utility.yul\":1448:1466   */\n  0xffffffffffffffff\n    /* \"#utility.yul\":1440:1446   */\n  dup3\n    /* \"#utility.yul\":1437:1467   */\n  gt\n    /* \"#utility.yul\":1434:1490   */\n  iszero\n  tag_54\n  jumpi\n    /* \"#utility.yul\":1470:1488   */\n  tag_55\n  tag_26\n  jump\t// in\ntag_55:\n    /* \"#utility.yul\":1434:1490   */\ntag_54:\n    /* \"#utility.yul\":1508:1537   */\n  tag_56\n    /* \"#utility.yul\":1530:1536   */\n  dup3\n    /* \"#utility.yul\":1508:1537   */\n  tag_25\n  jump\t// in\ntag_56:\n    /* \"#utility.yul\":1500:1537   */\n  swap1\n  pop\n    /* \"#utility.yul\":1592:1596   */\n  0x20\n    /* \"#utility.yul\":1586:1590   */\n  dup2\n    /* \"#utility.yul\":1582:1597   */\n  add\n    /* \"#utility.yul\":1574:1597   */\n  swap1\n  pop\n    /* \"#utility.yul\":1296:1604   */\n  swap2\n  swap1\n  pop\n  jump\t// out\n    /* \"#utility.yul\":1610:1917   */\ntag_30:\n    /* \"#utility.yul\":1678:1679   */\n  0x00\n    /* \"#utility.yul\":1688:1801   */\ntag_58:\n    /* \"#utility.yul\":1702:1708   */\n  dup4\n    /* \"#utility.yul\":1699:1700   */\n  dup2\n    /* \"#utility.yul\":1696:1709   */\n  lt\n    /* \"#utility.yul\":1688:1801   */\n  iszero\n  tag_60\n  jumpi\n    /* \"#utility.yul\":1787:1788   */\n  dup1\n    /* \"#utility.yul\":1782:1785   */\n  dup3\n    /* \"#utility.yul\":1778:1789   */\n  add\n    /* \"#utility.yul\":1772:1790   */\n  mload\n    /* \"#utility.yul\":1768:1769   */\n  dup2\n    /* \"#utility.yul\":1763:1766   */\n  dup5\n    /* \"#utility.yul\":1759:1770   */\n  add\n    /* \"#utility.yul\":1752:1791   */\n  mstore\n    /* \"#utility.yul\":1724:1726   */\n  0x20\n    /* \"#utility.yul\":1721:1722   */\n  dup2\n    /* \"#utility.yul\":1717:1727   */\n  add\n    /* \"#utility.yul\":1712:1727   */\n  swap1\n  pop\n    /* \"#utility.yul\":1688:1801   */\n  jump(tag_58)\ntag_60:\n    /* \"#utility.yul\":1819:1825   */\n  dup4\n    /* \"#utility.yul\":1816:1817   */\n  dup2\n    /* \"#utility.yul\":1813:1826   */\n  gt\n    /* \"#utility.yul\":1810:1911   */\n  iszero\n  tag_61\n  jumpi\n    /* \"#utility.yul\":1899:1900   */\n  0x00\n    /* \"#utility.yul\":1890:1896   */\n  dup5\n    /* \"#utility.yul\":1885:1888   */\n  dup5\n    /* \"#utility.yul\":1881:1897   */\n  add\n    /* \"#utility.yul\":1874:1901   */\n  mstore\n    /* \"#utility.yul\":1810:1911   */\ntag_61:\n    /* \"#utility.yul\":1659:1917   */\n  pop\n    /* \"#utility.yul\":1610:1917   */\n  pop\n  pop\n  pop\n  jump\t// out\n    /* \"#utility.yul\":1923:2344   */\ntag_31:\n    /* \"#utility.yul\":2012:2017   */\n  0x00\n    /* \"#utility.yul\":2037:2103   */\n  tag_63\n    /* \"#utility.yul\":2053:2102   */\n  tag_64\n    /* \"#utility.yul\":2095:2101   */\n  dup5\n    /* \"#utility.yul\":2053:2102   */\n  tag_29\n  jump\t// in\ntag_64:\n    /* \"#utility.yul\":2037:2103   */\n  tag_28\n  jump\t// in\ntag_63:\n    /* \"#utility.yul\":2028:2103   */\n  swap1\n  pop\n    /* \"#utility.yul\":2126:2132   */\n  dup3\n    /* \"#utility.yul\":2119:2124   */\n  dup2\n    /* \"#utility.yul\":2112:2133   */\n  mstore\n    /* \"#utility.yul\":2164:2168   */\n  0x20\n    /* \"#utility.yul\":2157:2162   */\n  dup2\n    /* \"#utility.yul\":2153:2169   */\n  add\n    /* \"#utility.yul\":2202:2205   */\n  dup5\n    /* \"#utility.yul\":2193:2199   */\n  dup5\n    /* \"#utility.yul\":2188:2191   */\n  dup5\n    /* \"#utility.yul\":2184:2200   */\n  add\n    /* \"#utility.yul\":2181:2206   */\n  gt\n    /* \"#utility.yul\":2178:2290   */\n  iszero\n  tag_65\n  jumpi\n    /* \"#utility.yul\":2209:2288   */\n  tag_66\n  tag_24\n  jump\t// in\ntag_66:\n    /* \"#utility.yul\":2178:2290   */\ntag_65:\n    /* \"#utility.yul\":2299:2338   */\n  tag_67\n    /* \"#utility.yul\":2331:2337   */\n  dup5\n    /* \"#utility.yul\":2326:2329   */\n  dup3\n    /* \"#utility.yul\":2321:2324   */\n  dup6\n    /* \"#utility.yul\":2299:2338   */\n  tag_30\n  jump\t// in\ntag_67:\n    /* \"#utility.yul\":2018:2344   */\n  pop\n    /* \"#utility.yul\":1923:2344   */\n  swap4\n  swap3\n  pop\n  pop\n  pop\n  jump\t// out\n    /* \"#utility.yul\":2364:2719   */\ntag_32:\n    /* \"#utility.yul\":2431:2436   */\n  0x00\n    /* \"#utility.yul\":2480:2483   */\n  dup3\n    /* \"#utility.yul\":2473:2477   */\n  0x1f\n    /* \"#utility.yul\":2465:2471   */\n  dup4\n    /* \"#utility.yul\":2461:2478   */\n  add\n    /* \"#utility.yul\":2457:2484   */\n  slt\n    /* \"#utility.yul\":2447:2569   */\n  tag_69\n  jumpi\n    /* \"#utility.yul\":2488:2567   */\n  tag_70\n  tag_23\n  jump\t// in\ntag_70:\n    /* \"#utility.yul\":2447:2569   */\ntag_69:\n    /* \"#utility.yul\":2598:2604   */\n  dup2\n    /* \"#utility.yul\":2592:2605   */\n  mload\n    /* \"#utility.yul\":2623:2713   */\n  tag_71\n    /* \"#utility.yul\":2709:2712   */\n  dup5\n    /* \"#utility.yul\":2701:2707   */\n  dup3\n    /* \"#utility.yul\":2694:2698   */\n  0x20\n    /* \"#utility.yul\":2686:2692   */\n  dup7\n    /* \"#utility.yul\":2682:2699   */\n  add\n    /* \"#utility.yul\":2623:2713   */\n  tag_31\n  jump\t// in\ntag_71:\n    /* \"#utility.yul\":2614:2713   */\n  swap2\n  pop\n    /* \"#utility.yul\":2437:2719   */\n  pop\n    /* \"#utility.yul\":2364:2719   */\n  swap3\n  swap2\n  pop\n  pop\n  jump\t// out\n    /* \"#utility.yul\":2725:2851   */\ntag_33:\n    /* \"#utility.yul\":2762:2769   */\n  0x00\n    /* \"#utility.yul\":2802:2844   */\n  0xffffffffffffffffffffffffffffffffffffffff\n    /* \"#utility.yul\":2795:2800   */\n  dup3\n    /* \"#utility.yul\":2791:2845   */\n  and\n    /* \"#utility.yul\":2780:2845   */\n  swap1\n  pop\n    /* \"#utility.yul\":2725:2851   */\n  swap2\n  swap1\n  pop\n  jump\t// out\n    /* \"#utility.yul\":2857:2953   */\ntag_34:\n    /* \"#utility.yul\":2894:2901   */\n  0x00\n    /* \"#utility.yul\":2923:2947   */\n  tag_74\n    /* \"#utility.yul\":2941:2946   */\n  dup3\n    /* \"#utility.yul\":2923:2947   */\n  tag_33\n  jump\t// in\ntag_74:\n    /* \"#utility.yul\":2912:2947   */\n  swap1\n  pop\n    /* \"#utility.yul\":2857:2953   */\n  swap2\n  swap1\n  pop\n  jump\t// out\n    /* \"#utility.yul\":2959:3081   */\ntag_35:\n    /* \"#utility.yul\":3032:3056   */\n  tag_76\n    /* \"#utility.yul\":3050:3055   */\n  dup2\n    /* \"#utility.yul\":3032:3056   */\n  tag_34\n  jump\t// in\ntag_76:\n    /* \"#utility.yul\":3025:3030   */\n  dup2\n    /* \"#utility.yul\":3022:3057   */\n  eq\n    /* \"#utility.yul\":3012:3075   */\n  tag_77\n  jumpi\n    /* \"#utility.yul\":3071:3072   */\n  0x00\n    /* \"#utility.yul\":3068:3069   */\n  dup1\n    /* \"#utility.yul\":3061:3073   */\n  revert\n    /* \"#utility.yul\":3012:3075   */\ntag_77:\n    /* \"#utility.yul\":2959:3081   */\n  pop\n  jump\t// out\n    /* \"#utility.yul\":3087:3230   */\ntag_36:\n    /* \"#utility.yul\":3144:3149   */\n  0x00\n    /* \"#utility.yul\":3175:3181   */\n  dup2\n    /* \"#utility.yul\":3169:3182   */\n  mload\n    /* \"#utility.yul\":3160:3182   */\n  swap1\n  pop\n    /* \"#utility.yul\":3191:3224   */\n  tag_79\n    /* \"#utility.yul\":3218:3223   */\n  dup2\n    /* \"#utility.yul\":3191:3224   */\n  tag_35\n  jump\t// in\ntag_79:\n    /* \"#utility.yul\":3087:3230   */\n  swap3\n  swap2\n  pop\n  pop\n  jump\t// out\n    /* \"#utility.yul\":3236:3916   */\ntag_3:\n    /* \"#utility.yul\":3325:3331   */\n  0x00\n    /* \"#utility.yul\":3333:3339   */\n  dup1\n    /* \"#utility.yul\":3382:3384   */\n  0x40\n    /* \"#utility.yul\":3370:3379   */\n  dup4\n    /* \"#utility.yul\":3361:3368   */\n  dup6\n    /* \"#utility.yul\":3357:3380   */\n  sub\n    /* \"#utility.yul\":3353:3385   */\n  slt\n    /* \"#utility.yul\":3350:3469   */\n  iszero\n  tag_81\n  jumpi\n    /* \"#utility.yul\":3388:3467   */\n  tag_82\n  tag_21\n  jump\t// in\ntag_82:\n    /* \"#utility.yul\":3350:3469   */\ntag_81:\n    /* \"#utility.yul\":3529:3530   */\n  0x00\n    /* \"#utility.yul\":3518:3527   */\n  dup4\n    /* \"#utility.yul\":3514:3531   */\n  add\n    /* \"#utility.yul\":3508:3532   */\n  mload\n    /* \"#utility.yul\":3559:3577   */\n  0xffffffffffffffff\n    /* \"#utility.yul\":3551:3557   */\n  dup2\n    /* \"#utility.yul\":3548:3578   */\n  gt\n    /* \"#utility.yul\":3545:3662   */\n  iszero\n  tag_83\n  jumpi\n    /* \"#utility.yul\":3581:3660   */\n  tag_84\n  tag_22\n  jump\t// in\ntag_84:\n    /* \"#utility.yul\":3545:3662   */\ntag_83:\n    /* \"#utility.yul\":3686:3760   */\n  tag_85\n    /* \"#utility.yul\":3752:3759   */\n  dup6\n    /* \"#utility.yul\":3743:3749   */\n  dup3\n    /* \"#utility.yul\":3732:3741   */\n  dup7\n    /* \"#utility.yul\":3728:3750   */\n  add\n    /* \"#utility.yul\":3686:3760   */\n  tag_32\n  jump\t// in\ntag_85:\n    /* \"#utility.yul\":3676:3760   */\n  swap3\n  pop\n    /* \"#utility.yul\":3479:3770   */\n  pop\n    /* \"#utility.yul\":3809:3811   */\n  0x20\n    /* \"#utility.yul\":3835:3899   */\n  tag_86\n    /* \"#utility.yul\":3891:3898   */\n  dup6\n    /* \"#utility.yul\":3882:3888   */\n  dup3\n    /* \"#utility.yul\":3871:3880   */\n  dup7\n    /* \"#utility.yul\":3867:3889   */\n  add\n    /* \"#utility.yul\":3835:3899   */\n  tag_36\n  jump\t// in\ntag_86:\n    /* \"#utility.yul\":3825:3899   */\n  swap2\n  pop\n    /* \"#utility.yul\":3780:3909   */\n  pop\n    /* \"#utility.yul\":3236:3916   */\n  swap3\n  pop\n  swap3\n  swap1\n  pop\n  jump\t// out\n    /* \"#utility.yul\":3922:4102   */\ntag_37:\n    /* \"#utility.yul\":3970:4047   */\n  0x4e487b7100000000000000000000000000000000000000000000000000000000\n    /* \"#utility.yul\":3967:3968   */\n  0x00\n    /* \"#utility.yul\":3960:4048   */\n  mstore\n    /* \"#utility.yul\":4067:4071   */\n  0x22\n    /* \"#utility.yul\":4064:4065   */\n  0x04\n    /* \"#utility.yul\":4057:4072   */\n  mstore\n    /* \"#utility.yul\":4091:4095   */\n  0x24\n    /* \"#utility.yul\":4088:4089   */\n  0x00\n    /* \"#utility.yul\":4081:4096   */\n  revert\n    /* \"#utility.yul\":4108:4428   */\ntag_10:\n    /* \"#utility.yul\":4152:4158   */\n  0x00\n    /* \"#utility.yul\":4189:4190   */\n  0x02\n    /* \"#utility.yul\":4183:4187   */\n  dup3\n    /* \"#utility.yul\":4179:4191   */\n  div\n    /* \"#utility.yul\":4169:4191   */\n  swap1\n  pop\n    /* \"#utility.yul\":4236:4237   */\n  0x01\n    /* \"#utility.yul\":4230:4234   */\n  dup3\n    /* \"#utility.yul\":4226:4238   */\n  and\n    /* \"#utility.yul\":4257:4275   */\n  dup1\n    /* \"#utility.yul\":4247:4328   */\n  tag_89\n  jumpi\n    /* \"#utility.yul\":4313:4317   */\n  0x7f\n    /* \"#utility.yul\":4305:4311   */\n  dup3\n    /* \"#utility.yul\":4301:4318   */\n  and\n    /* \"#utility.yul\":4291:4318   */\n  swap2\n  pop\n    /* \"#utility.yul\":4247:4328   */\ntag_89:\n    /* \"#utility.yul\":4375:4377   */\n  0x20\n    /* \"#utility.yul\":4367:4373   */\n  dup3\n    /* \"#utility.yul\":4364:4378   */\n  lt\n    /* \"#utility.yul\":4344:4362   */\n  dup2\n    /* \"#utility.yul\":4341:4379   */\n  eq\n    /* \"#utility.yul\":4338:4422   */\n  iszero\n  tag_90\n  jumpi\n    /* \"#utility.yul\":4394:4412   */\n  tag_91\n  tag_37\n  jump\t// in\ntag_91:\n    /* \"#utility.yul\":4338:4422   */\ntag_90:\n    /* \"#utility.yul\":4159:4428   */\n  pop\n    /* \"#utility.yul\":4108:4428   */\n  swap2\n  swap1\n  pop\n  jump\t// out\n    /* \"Election.sol\":1187:3318  contract Election {... */\ntag_8:\n  dataSize(sub_0)\n  dup1\n  dataOffset(sub_0)\n  0x00\n  codecopy\n  0x00\n  return\nstop\n\nsub_0: assembly {\n        /* \"Election.sol\":1187:3318  contract Election {... */\n      mstore(0x40, 0x80)\n      callvalue\n      dup1\n      iszero\n      tag_1\n      jumpi\n      0x00\n      dup1\n      revert\n    tag_1:\n      pop\n      jumpi(tag_2, lt(calldatasize, 0x04))\n      shr(0xe0, calldataload(0x00))\n      dup1\n      0x85e8e7a7\n      gt\n      tag_14\n      jumpi\n      dup1\n      0x85e8e7a7\n      eq\n      tag_8\n      jumpi\n      dup1\n      0x8c08a4dc\n      eq\n      tag_9\n      jumpi\n      dup1\n      0xa3ec138d\n      eq\n      tag_10\n      jumpi\n      dup1\n      0xa9a981a3\n      eq\n      tag_11\n      jumpi\n      dup1\n      0xad71f8dc\n      eq\n      tag_12\n      jumpi\n      dup1\n      0xf851a440\n      eq\n      tag_13\n      jumpi\n      jump(tag_2)\n    tag_14:\n      dup1\n      0x12fa6feb\n      eq\n      tag_3\n      jumpi\n      dup1\n      0x1f2698ab\n      eq\n      tag_4\n      jumpi\n      dup1\n      0x3477ee2e\n      eq\n      tag_5\n      jumpi\n      dup1\n      0x59f78468\n      eq\n      tag_6\n      jumpi\n      dup1\n      0x62d73eb8\n      eq\n      tag_7\n      jumpi\n    tag_2:\n      0x00\n      dup1\n      revert\n        /* \"Election.sol\":1719:1736  bool public ended */\n    tag_3:\n      tag_15\n      tag_16\n      jump\t// in\n    tag_15:\n      mload(0x40)\n      tag_17\n      swap2\n      swap1\n      tag_18\n      jump\t// in\n    tag_17:\n      mload(0x40)\n      dup1\n      swap2\n      sub\n      swap1\n      return\n        /* \"Election.sol\":1560:1579  bool public started */\n    tag_4:\n      tag_19\n      tag_20\n      jump\t// in\n    tag_19:\n      mload(0x40)\n      tag_21\n      swap2\n      swap1\n      tag_18\n      jump\t// in\n    tag_21:\n      mload(0x40)\n      dup1\n      swap2\n      sub\n      swap1\n      return\n        /* \"Election.sol\":1370:1417  mapping(uint256 => Candidate) public candidates */\n    tag_5:\n      tag_22\n      0x04\n      dup1\n      calldatasize\n      sub\n      dup2\n      add\n      swap1\n      tag_23\n      swap2\n      swap1\n      tag_24\n      jump\t// in\n    tag_23:\n      tag_25\n      jump\t// in\n    tag_22:\n      mload(0x40)\n      tag_26\n      swap5\n      swap4\n      swap3\n      swap2\n      swap1\n      tag_27\n      jump\t// in\n    tag_26:\n      mload(0x40)\n      dup1\n      swap2\n      sub\n      swap1\n      return\n        /* \"Election.sol\":3128:3316  function endElection() public restricted electionStarted {... */\n    tag_6:\n      tag_28\n      tag_29\n      jump\t// in\n    tag_28:\n      stop\n        /* \"Election.sol\":2184:2307  function startElection() public restricted {... */\n    tag_7:\n      tag_30\n      tag_31\n      jump\t// in\n    tag_30:\n      stop\n        /* \"Election.sol\":1528:1554  string public electionName */\n    tag_8:\n      tag_32\n      tag_33\n      jump\t// in\n    tag_32:\n      mload(0x40)\n      tag_34\n      swap2\n      swap1\n      tag_35\n      jump\t// in\n    tag_34:\n      mload(0x40)\n      dup1\n      swap2\n      sub\n      swap1\n      return\n        /* \"Election.sol\":2765:3103  function voteCandidate(uint256 id) public electionStarted {... */\n    tag_9:\n      tag_36\n      0x04\n      dup1\n      calldatasize\n      sub\n      dup2\n      add\n      swap1\n      tag_37\n      swap2\n      swap1\n      tag_24\n      jump\t// in\n    tag_37:\n      tag_38\n      jump\t// in\n    tag_36:\n      stop\n        /* \"Election.sol\":1484:1522  mapping(address => bool) public voters */\n    tag_10:\n      tag_39\n      0x04\n      dup1\n      calldatasize\n      sub\n      dup2\n      add\n      swap1\n      tag_40\n      swap2\n      swap1\n      tag_41\n      jump\t// in\n    tag_40:\n      tag_42\n      jump\t// in\n    tag_39:\n      mload(0x40)\n      tag_43\n      swap2\n      swap1\n      tag_18\n      jump\t// in\n    tag_43:\n      mload(0x40)\n      dup1\n      swap2\n      sub\n      swap1\n      return\n        /* \"Election.sol\":1423:1452  uint256 public candidateCount */\n    tag_11:\n      tag_44\n      tag_45\n      jump\t// in\n    tag_44:\n      mload(0x40)\n      tag_46\n      swap2\n      swap1\n      tag_47\n      jump\t// in\n    tag_46:\n      mload(0x40)\n      dup1\n      swap2\n      sub\n      swap1\n      return\n        /* \"Election.sol\":2333:2738  function addCandidate(... */\n    tag_12:\n      tag_48\n      0x04\n      dup1\n      calldatasize\n      sub\n      dup2\n      add\n      swap1\n      tag_49\n      swap2\n      swap1\n      tag_50\n      jump\t// in\n    tag_49:\n      tag_51\n      jump\t// in\n    tag_48:\n      stop\n        /* \"Election.sol\":1458:1478  address public admin */\n    tag_13:\n      tag_52\n      tag_53\n      jump\t// in\n    tag_52:\n      mload(0x40)\n      tag_54\n      swap2\n      swap1\n      tag_55\n      jump\t// in\n    tag_54:\n      mload(0x40)\n      dup1\n      swap2\n      sub\n      swap1\n      return\n        /* \"Election.sol\":1719:1736  bool public ended */\n    tag_16:\n      0x05\n      0x01\n      swap1\n      sload\n      swap1\n      0x0100\n      exp\n      swap1\n      div\n      0xff\n      and\n      dup2\n      jump\t// out\n        /* \"Election.sol\":1560:1579  bool public started */\n    tag_20:\n      0x05\n      0x00\n      swap1\n      sload\n      swap1\n      0x0100\n      exp\n      swap1\n      div\n      0xff\n      and\n      dup2\n      jump\t// out\n        /* \"Election.sol\":1370:1417  mapping(uint256 => Candidate) public candidates */\n    tag_25:\n      mstore(0x20, 0x00)\n      dup1\n      0x00\n      mstore\n      keccak256(0x00, 0x40)\n      0x00\n      swap2\n      pop\n      swap1\n      pop\n      dup1\n      0x00\n      add\n      dup1\n      sload\n      tag_56\n      swap1\n      tag_57\n      jump\t// in\n    tag_56:\n      dup1\n      0x1f\n      add\n      0x20\n      dup1\n      swap2\n      div\n      mul\n      0x20\n      add\n      mload(0x40)\n      swap1\n      dup2\n      add\n      0x40\n      mstore\n      dup1\n      swap3\n      swap2\n      swap1\n      dup2\n      dup2\n      mstore\n      0x20\n      add\n      dup3\n      dup1\n      sload\n      tag_58\n      swap1\n      tag_57\n      jump\t// in\n    tag_58:\n      dup1\n      iszero\n      tag_59\n      jumpi\n      dup1\n      0x1f\n      lt\n      tag_60\n      jumpi\n      0x0100\n      dup1\n      dup4\n      sload\n      div\n      mul\n      dup4\n      mstore\n      swap2\n      0x20\n      add\n      swap2\n      jump(tag_59)\n    tag_60:\n      dup3\n      add\n      swap2\n      swap1\n      0x00\n      mstore\n      keccak256(0x00, 0x20)\n      swap1\n    tag_61:\n      dup2\n      sload\n      dup2\n      mstore\n      swap1\n      0x01\n      add\n      swap1\n      0x20\n      add\n      dup1\n      dup4\n      gt\n      tag_61\n      jumpi\n      dup3\n      swap1\n      sub\n      0x1f\n      and\n      dup3\n      add\n      swap2\n    tag_59:\n      pop\n      pop\n      pop\n      pop\n      pop\n      swap1\n      dup1\n      0x01\n      add\n      dup1\n      sload\n      tag_62\n      swap1\n      tag_57\n      jump\t// in\n    tag_62:\n      dup1\n      0x1f\n      add\n      0x20\n      dup1\n      swap2\n      div\n      mul\n      0x20\n      add\n      mload(0x40)\n      swap1\n      dup2\n      add\n      0x40\n      mstore\n      dup1\n      swap3\n      swap2\n      swap1\n      dup2\n      dup2\n      mstore\n      0x20\n      add\n      dup3\n      dup1\n      sload\n      tag_63\n      swap1\n      tag_57\n      jump\t// in\n    tag_63:\n      dup1\n      iszero\n      tag_64\n      jumpi\n      dup1\n      0x1f\n      lt\n      tag_65\n      jumpi\n      0x0100\n      dup1\n      dup4\n      sload\n      div\n      mul\n      dup4\n      mstore\n      swap2\n      0x20\n      add\n      swap2\n      jump(tag_64)\n    tag_65:\n      dup3\n      add\n      swap2\n      swap1\n      0x00\n      mstore\n      keccak256(0x00, 0x20)\n      swap1\n    tag_66:\n      dup2\n      sload\n      dup2\n      mstore\n      swap1\n      0x01\n      add\n      swap1\n      0x20\n      add\n      dup1\n      dup4\n      gt\n      tag_66\n      jumpi\n      dup3\n      swap1\n      sub\n      0x1f\n      and\n      dup3\n      add\n      swap2\n    tag_64:\n      pop\n      pop\n      pop\n      pop\n      pop\n      swap1\n      dup1\n      0x02\n      add\n      dup1\n      sload\n      tag_67\n      swap1\n      tag_57\n      jump\t// in\n    tag_67:\n      dup1\n      0x1f\n      add\n      0x20\n      dup1\n      swap2\n      div\n      mul\n      0x20\n      add\n      mload(0x40)\n      swap1\n      dup2\n      add\n      0x40\n      mstore\n      dup1\n      swap3\n      swap2\n      swap1\n      dup2\n      dup2\n      mstore\n      0x20\n      add\n      dup3\n      dup1\n      sload\n      tag_68\n      swap1\n      tag_57\n      jump\t// in\n    tag_68:\n      dup1\n      iszero\n      tag_69\n      jumpi\n      dup1\n      0x1f\n      lt\n      tag_70\n      jumpi\n      0x0100\n      dup1\n      dup4\n      sload\n      div\n      mul\n      dup4\n      mstore\n      swap2\n      0x20\n      add\n      swap2\n      jump(tag_69)\n    tag_70:\n      dup3\n      add\n      swap2\n      swap1\n      0x00\n      mstore\n      keccak256(0x00, 0x20)\n      swap1\n    tag_71:\n      dup2\n      sload\n      dup2\n      mstore\n      swap1\n      0x01\n      add\n      swap1\n      0x20\n      add\n      dup1\n      dup4\n      gt\n      tag_71\n      jumpi\n      dup3\n      swap1\n      sub\n      0x1f\n      and\n      dup3\n      add\n      swap2\n    tag_69:\n      pop\n      pop\n      pop\n      pop\n      pop\n      swap1\n      dup1\n      0x03\n      add\n      sload\n      swap1\n      pop\n      dup5\n      jump\t// out\n        /* \"Election.sol\":3128:3316  function endElection() public restricted electionStarted {... */\n    tag_29:\n        /* \"Election.sol\":1999:2004  admin */\n      0x02\n      0x00\n      swap1\n      sload\n      swap1\n      0x0100\n      exp\n      swap1\n      div\n      0xffffffffffffffffffffffffffffffffffffffff\n      and\n        /* \"Election.sol\":1985:2004  msg.sender == admin */\n      0xffffffffffffffffffffffffffffffffffffffff\n      and\n        /* \"Election.sol\":1985:1995  msg.sender */\n      caller\n        /* \"Election.sol\":1985:2004  msg.sender == admin */\n      0xffffffffffffffffffffffffffffffffffffffff\n      and\n      eq\n        /* \"Election.sol\":1977:2005  require(msg.sender == admin) */\n      tag_73\n      jumpi\n      0x00\n      dup1\n      revert\n    tag_73:\n        /* \"Election.sol\":1883:1890  started */\n      0x05\n      0x00\n      swap1\n      sload\n      swap1\n      0x0100\n      exp\n      swap1\n      div\n      0xff\n      and\n        /* \"Election.sol\":1875:1891  require(started) */\n      tag_75\n      jumpi\n      0x00\n      dup1\n      revert\n    tag_75:\n        /* \"Election.sol\":3282:3287  false */\n      0x00\n        /* \"Election.sol\":3272:3279  started */\n      0x05\n      0x00\n        /* \"Election.sol\":3272:3287  started = false */\n      0x0100\n      exp\n      dup2\n      sload\n      dup2\n      0xff\n      mul\n      not\n      and\n      swap1\n      dup4\n      iszero\n      iszero\n      mul\n      or\n      swap1\n      sstore\n      pop\n        /* \"Election.sol\":3305:3309  true */\n      0x01\n        /* \"Election.sol\":3297:3302  ended */\n      0x05\n      0x01\n        /* \"Election.sol\":3297:3309  ended = true */\n      0x0100\n      exp\n      dup2\n      sload\n      dup2\n      0xff\n      mul\n      not\n      and\n      swap1\n      dup4\n      iszero\n      iszero\n      mul\n      or\n      swap1\n      sstore\n      pop\n        /* \"Election.sol\":3128:3316  function endElection() public restricted electionStarted {... */\n      jump\t// out\n        /* \"Election.sol\":2184:2307  function startElection() public restricted {... */\n    tag_31:\n        /* \"Election.sol\":1999:2004  admin */\n      0x02\n      0x00\n      swap1\n      sload\n      swap1\n      0x0100\n      exp\n      swap1\n      div\n      0xffffffffffffffffffffffffffffffffffffffff\n      and\n        /* \"Election.sol\":1985:2004  msg.sender == admin */\n      0xffffffffffffffffffffffffffffffffffffffff\n      and\n        /* \"Election.sol\":1985:1995  msg.sender */\n      caller\n        /* \"Election.sol\":1985:2004  msg.sender == admin */\n      0xffffffffffffffffffffffffffffffffffffffff\n      and\n      eq\n        /* \"Election.sol\":1977:2005  require(msg.sender == admin) */\n      tag_78\n      jumpi\n      0x00\n      dup1\n      revert\n    tag_78:\n        /* \"Election.sol\":2246:2253  started */\n      0x05\n      0x00\n      swap1\n      sload\n      swap1\n      0x0100\n      exp\n      swap1\n      div\n      0xff\n      and\n        /* \"Election.sol\":2245:2253  !started */\n      iszero\n        /* \"Election.sol\":2237:2254  require(!started) */\n      tag_80\n      jumpi\n      0x00\n      dup1\n      revert\n    tag_80:\n        /* \"Election.sol\":2274:2278  true */\n      0x01\n        /* \"Election.sol\":2264:2271  started */\n      0x05\n      0x00\n        /* \"Election.sol\":2264:2278  started = true */\n      0x0100\n      exp\n      dup2\n      sload\n      dup2\n      0xff\n      mul\n      not\n      and\n      swap1\n      dup4\n      iszero\n      iszero\n      mul\n      or\n      swap1\n      sstore\n      pop\n        /* \"Election.sol\":2296:2300  true */\n      0x01\n        /* \"Election.sol\":2288:2293  ended */\n      0x05\n      0x01\n        /* \"Election.sol\":2288:2300  ended = true */\n      0x0100\n      exp\n      dup2\n      sload\n      dup2\n      0xff\n      mul\n      not\n      and\n      swap1\n      dup4\n      iszero\n      iszero\n      mul\n      or\n      swap1\n      sstore\n      pop\n        /* \"Election.sol\":2184:2307  function startElection() public restricted {... */\n      jump\t// out\n        /* \"Election.sol\":1528:1554  string public electionName */\n    tag_33:\n      0x04\n      dup1\n      sload\n      tag_81\n      swap1\n      tag_57\n      jump\t// in\n    tag_81:\n      dup1\n      0x1f\n      add\n      0x20\n      dup1\n      swap2\n      div\n      mul\n      0x20\n      add\n      mload(0x40)\n      swap1\n      dup2\n      add\n      0x40\n      mstore\n      dup1\n      swap3\n      swap2\n      swap1\n      dup2\n      dup2\n      mstore\n      0x20\n      add\n      dup3\n      dup1\n      sload\n      tag_82\n      swap1\n      tag_57\n      jump\t// in\n    tag_82:\n      dup1\n      iszero\n      tag_83\n      jumpi\n      dup1\n      0x1f\n      lt\n      tag_84\n      jumpi\n      0x0100\n      dup1\n      dup4\n      sload\n      div\n      mul\n      dup4\n      mstore\n      swap2\n      0x20\n      add\n      swap2\n      jump(tag_83)\n    tag_84:\n      dup3\n      add\n      swap2\n      swap1\n      0x00\n      mstore\n      keccak256(0x00, 0x20)\n      swap1\n    tag_85:\n      dup2\n      sload\n      dup2\n      mstore\n      swap1\n      0x01\n      add\n      swap1\n      0x20\n      add\n      dup1\n      dup4\n      gt\n      tag_85\n      jumpi\n      dup3\n      swap1\n      sub\n      0x1f\n      and\n      dup3\n      add\n      swap2\n    tag_83:\n      pop\n      pop\n      pop\n      pop\n      pop\n      dup2\n      jump\t// out\n        /* \"Election.sol\":2765:3103  function voteCandidate(uint256 id) public electionStarted {... */\n    tag_38:\n        /* \"Election.sol\":1883:1890  started */\n      0x05\n      0x00\n      swap1\n      sload\n      swap1\n      0x0100\n      exp\n      swap1\n      div\n      0xff\n      and\n        /* \"Election.sol\":1875:1891  require(started) */\n      tag_87\n      jumpi\n      0x00\n      dup1\n      revert\n    tag_87:\n        /* \"Election.sol\":2833:2867  Candidate storage currentCandidate */\n      0x00\n        /* \"Election.sol\":2870:2880  candidates */\n      dup1\n        /* \"Election.sol\":2870:2884  candidates[id] */\n      0x00\n        /* \"Election.sol\":2881:2883  id */\n      dup4\n        /* \"Election.sol\":2870:2884  candidates[id] */\n      dup2\n      mstore\n      0x20\n      add\n      swap1\n      dup2\n      mstore\n      0x20\n      add\n      0x00\n      keccak256\n        /* \"Election.sol\":2833:2884  Candidate storage currentCandidate = candidates[id] */\n      swap1\n      pop\n        /* \"Election.sol\":2948:2954  voters */\n      0x03\n        /* \"Election.sol\":2948:2966  voters[msg.sender] */\n      0x00\n        /* \"Election.sol\":2955:2965  msg.sender */\n      caller\n        /* \"Election.sol\":2948:2966  voters[msg.sender] */\n      0xffffffffffffffffffffffffffffffffffffffff\n      and\n      0xffffffffffffffffffffffffffffffffffffffff\n      and\n      dup2\n      mstore\n      0x20\n      add\n      swap1\n      dup2\n      mstore\n      0x20\n      add\n      0x00\n      keccak256\n      0x00\n      swap1\n      sload\n      swap1\n      0x0100\n      exp\n      swap1\n      div\n      0xff\n      and\n        /* \"Election.sol\":2947:2966  !voters[msg.sender] */\n      iszero\n        /* \"Election.sol\":2939:2967  require(!voters[msg.sender]) */\n      tag_89\n      jumpi\n      0x00\n      dup1\n      revert\n    tag_89:\n        /* \"Election.sol\":3004:3020  currentCandidate */\n      dup1\n        /* \"Election.sol\":3004:3026  currentCandidate.votes */\n      0x03\n      add\n      0x00\n        /* \"Election.sol\":3004:3028  currentCandidate.votes++ */\n      dup2\n      sload\n      dup1\n      swap3\n      swap2\n      swap1\n      tag_90\n      swap1\n      tag_91\n      jump\t// in\n    tag_90:\n      swap2\n      swap1\n      pop\n      sstore\n      pop\n        /* \"Election.sol\":3092:3096  true */\n      0x01\n        /* \"Election.sol\":3071:3077  voters */\n      0x03\n        /* \"Election.sol\":3071:3089  voters[msg.sender] */\n      0x00\n        /* \"Election.sol\":3078:3088  msg.sender */\n      caller\n        /* \"Election.sol\":3071:3089  voters[msg.sender] */\n      0xffffffffffffffffffffffffffffffffffffffff\n      and\n      0xffffffffffffffffffffffffffffffffffffffff\n      and\n      dup2\n      mstore\n      0x20\n      add\n      swap1\n      dup2\n      mstore\n      0x20\n      add\n      0x00\n      keccak256\n      0x00\n        /* \"Election.sol\":3071:3096  voters[msg.sender] = true */\n      0x0100\n      exp\n      dup2\n      sload\n      dup2\n      0xff\n      mul\n      not\n      and\n      swap1\n      dup4\n      iszero\n      iszero\n      mul\n      or\n      swap1\n      sstore\n      pop\n        /* \"Election.sol\":2823:3103  {... */\n      pop\n        /* \"Election.sol\":2765:3103  function voteCandidate(uint256 id) public electionStarted {... */\n      pop\n      jump\t// out\n        /* \"Election.sol\":1484:1522  mapping(address => bool) public voters */\n    tag_42:\n      mstore(0x20, 0x03)\n      dup1\n      0x00\n      mstore\n      keccak256(0x00, 0x40)\n      0x00\n      swap2\n      pop\n      sload\n      swap1\n      0x0100\n      exp\n      swap1\n      div\n      0xff\n      and\n      dup2\n      jump\t// out\n        /* \"Election.sol\":1423:1452  uint256 public candidateCount */\n    tag_45:\n      sload(0x01)\n      dup2\n      jump\t// out\n        /* \"Election.sol\":2333:2738  function addCandidate(... */\n    tag_51:\n        /* \"Election.sol\":1999:2004  admin */\n      0x02\n      0x00\n      swap1\n      sload\n      swap1\n      0x0100\n      exp\n      swap1\n      div\n      0xffffffffffffffffffffffffffffffffffffffff\n      and\n        /* \"Election.sol\":1985:2004  msg.sender == admin */\n      0xffffffffffffffffffffffffffffffffffffffff\n      and\n        /* \"Election.sol\":1985:1995  msg.sender */\n      caller\n        /* \"Election.sol\":1985:2004  msg.sender == admin */\n      0xffffffffffffffffffffffffffffffffffffffff\n      and\n      eq\n        /* \"Election.sol\":1977:2005  require(msg.sender == admin) */\n      tag_93\n      jumpi\n      0x00\n      dup1\n      revert\n    tag_93:\n        /* \"Election.sol\":2488:2493  ended */\n      0x05\n      0x01\n      swap1\n      sload\n      swap1\n      0x0100\n      exp\n      swap1\n      div\n      0xff\n      and\n        /* \"Election.sol\":2487:2493  !ended */\n      iszero\n        /* \"Election.sol\":2479:2494  require(!ended) */\n      tag_95\n      jumpi\n      0x00\n      dup1\n      revert\n    tag_95:\n        /* \"Election.sol\":2560:2567  started */\n      0x05\n      0x00\n      swap1\n      sload\n      swap1\n      0x0100\n      exp\n      swap1\n      div\n      0xff\n      and\n        /* \"Election.sol\":2559:2567  !started */\n      iszero\n        /* \"Election.sol\":2551:2568  require(!started) */\n      tag_96\n      jumpi\n      0x00\n      dup1\n      revert\n    tag_96:\n        /* \"Election.sol\":2579:2598  Candidate storage c */\n      0x00\n        /* \"Election.sol\":2601:2611  candidates */\n      dup1\n        /* \"Election.sol\":2601:2629  candidates[candidateCount++] */\n      0x00\n        /* \"Election.sol\":2612:2626  candidateCount */\n      0x01\n      0x00\n        /* \"Election.sol\":2612:2628  candidateCount++ */\n      dup2\n      sload\n      dup1\n      swap3\n      swap2\n      swap1\n      tag_97\n      swap1\n      tag_91\n      jump\t// in\n    tag_97:\n      swap2\n      swap1\n      pop\n      sstore\n        /* \"Election.sol\":2601:2629  candidates[candidateCount++] */\n      dup2\n      mstore\n      0x20\n      add\n      swap1\n      dup2\n      mstore\n      0x20\n      add\n      0x00\n      keccak256\n        /* \"Election.sol\":2579:2629  Candidate storage c = candidates[candidateCount++] */\n      swap1\n      pop\n        /* \"Election.sol\":2648:2652  name */\n      dup4\n        /* \"Election.sol\":2639:2640  c */\n      dup2\n        /* \"Election.sol\":2639:2645  c.name */\n      0x00\n      add\n        /* \"Election.sol\":2639:2652  c.name = name */\n      swap1\n      dup1\n      mload\n      swap1\n      0x20\n      add\n      swap1\n      tag_98\n      swap3\n      swap2\n      swap1\n      tag_99\n      jump\t// in\n    tag_98:\n      pop\n        /* \"Election.sol\":2678:2689  description */\n      dup3\n        /* \"Election.sol\":2662:2663  c */\n      dup2\n        /* \"Election.sol\":2662:2675  c.description */\n      0x01\n      add\n        /* \"Election.sol\":2662:2689  c.description = description */\n      swap1\n      dup1\n      mload\n      swap1\n      0x20\n      add\n      swap1\n      tag_100\n      swap3\n      swap2\n      swap1\n      tag_99\n      jump\t// in\n    tag_100:\n      pop\n        /* \"Election.sol\":2707:2710  url */\n      dup2\n        /* \"Election.sol\":2699:2700  c */\n      dup2\n        /* \"Election.sol\":2699:2704  c.url */\n      0x02\n      add\n        /* \"Election.sol\":2699:2710  c.url = url */\n      swap1\n      dup1\n      mload\n      swap1\n      0x20\n      add\n      swap1\n      tag_101\n      swap3\n      swap2\n      swap1\n      tag_99\n      jump\t// in\n    tag_101:\n      pop\n        /* \"Election.sol\":2730:2731  0 */\n      0x00\n        /* \"Election.sol\":2720:2721  c */\n      dup2\n        /* \"Election.sol\":2720:2727  c.votes */\n      0x03\n      add\n        /* \"Election.sol\":2720:2731  c.votes = 0 */\n      dup2\n      swap1\n      sstore\n      pop\n        /* \"Election.sol\":2469:2738  {... */\n      pop\n        /* \"Election.sol\":2333:2738  function addCandidate(... */\n      pop\n      pop\n      pop\n      jump\t// out\n        /* \"Election.sol\":1458:1478  address public admin */\n    tag_53:\n      0x02\n      0x00\n      swap1\n      sload\n      swap1\n      0x0100\n      exp\n      swap1\n      div\n      0xffffffffffffffffffffffffffffffffffffffff\n      and\n      dup2\n      jump\t// out\n    tag_99:\n      dup3\n      dup1\n      sload\n      tag_102\n      swap1\n      tag_57\n      jump\t// in\n    tag_102:\n      swap1\n      0x00\n      mstore\n      keccak256(0x00, 0x20)\n      swap1\n      0x1f\n      add\n      0x20\n      swap1\n      div\n      dup2\n      add\n      swap3\n      dup3\n      tag_104\n      jumpi\n      0x00\n      dup6\n      sstore\n      jump(tag_103)\n    tag_104:\n      dup3\n      0x1f\n      lt\n      tag_105\n      jumpi\n      dup1\n      mload\n      not(0xff)\n      and\n      dup4\n      dup1\n      add\n      or\n      dup6\n      sstore\n      jump(tag_103)\n    tag_105:\n      dup3\n      dup1\n      add\n      0x01\n      add\n      dup6\n      sstore\n      dup3\n      iszero\n      tag_103\n      jumpi\n      swap2\n      dup3\n      add\n    tag_106:\n      dup3\n      dup2\n      gt\n      iszero\n      tag_107\n      jumpi\n      dup3\n      mload\n      dup3\n      sstore\n      swap2\n      0x20\n      add\n      swap2\n      swap1\n      0x01\n      add\n      swap1\n      jump(tag_106)\n    tag_107:\n    tag_103:\n      pop\n      swap1\n      pop\n      tag_108\n      swap2\n      swap1\n      tag_109\n      jump\t// in\n    tag_108:\n      pop\n      swap1\n      jump\t// out\n    tag_109:\n    tag_110:\n      dup1\n      dup3\n      gt\n      iszero\n      tag_111\n      jumpi\n      0x00\n      dup2\n      0x00\n      swap1\n      sstore\n      pop\n      0x01\n      add\n      jump(tag_110)\n    tag_111:\n      pop\n      swap1\n      jump\t// out\n        /* \"#utility.yul\":7:97   */\n    tag_112:\n        /* \"#utility.yul\":41:48   */\n      0x00\n        /* \"#utility.yul\":84:89   */\n      dup2\n        /* \"#utility.yul\":77:90   */\n      iszero\n        /* \"#utility.yul\":70:91   */\n      iszero\n        /* \"#utility.yul\":59:91   */\n      swap1\n      pop\n        /* \"#utility.yul\":7:97   */\n      swap2\n      swap1\n      pop\n      jump\t// out\n        /* \"#utility.yul\":103:212   */\n    tag_113:\n        /* \"#utility.yul\":184:205   */\n      tag_145\n        /* \"#utility.yul\":199:204   */\n      dup2\n        /* \"#utility.yul\":184:205   */\n      tag_112\n      jump\t// in\n    tag_145:\n        /* \"#utility.yul\":179:182   */\n      dup3\n        /* \"#utility.yul\":172:206   */\n      mstore\n        /* \"#utility.yul\":103:212   */\n      pop\n      pop\n      jump\t// out\n        /* \"#utility.yul\":218:428   */\n    tag_18:\n        /* \"#utility.yul\":305:309   */\n      0x00\n        /* \"#utility.yul\":343:345   */\n      0x20\n        /* \"#utility.yul\":332:341   */\n      dup3\n        /* \"#utility.yul\":328:346   */\n      add\n        /* \"#utility.yul\":320:346   */\n      swap1\n      pop\n        /* \"#utility.yul\":356:421   */\n      tag_147\n        /* \"#utility.yul\":418:419   */\n      0x00\n        /* \"#utility.yul\":407:416   */\n      dup4\n        /* \"#utility.yul\":403:420   */\n      add\n        /* \"#utility.yul\":394:400   */\n      dup5\n        /* \"#utility.yul\":356:421   */\n      tag_113\n      jump\t// in\n    tag_147:\n        /* \"#utility.yul\":218:428   */\n      swap3\n      swap2\n      pop\n      pop\n      jump\t// out\n        /* \"#utility.yul\":434:509   */\n    tag_114:\n        /* \"#utility.yul\":467:473   */\n      0x00\n        /* \"#utility.yul\":500:502   */\n      0x40\n        /* \"#utility.yul\":494:503   */\n      mload\n        /* \"#utility.yul\":484:503   */\n      swap1\n      pop\n        /* \"#utility.yul\":434:509   */\n      swap1\n      jump\t// out\n        /* \"#utility.yul\":515:632   */\n    tag_115:\n        /* \"#utility.yul\":624:625   */\n      0x00\n        /* \"#utility.yul\":621:622   */\n      dup1\n        /* \"#utility.yul\":614:626   */\n      revert\n        /* \"#utility.yul\":638:755   */\n    tag_116:\n        /* \"#utility.yul\":747:748   */\n      0x00\n        /* \"#utility.yul\":744:745   */\n      dup1\n        /* \"#utility.yul\":737:749   */\n      revert\n        /* \"#utility.yul\":761:838   */\n    tag_117:\n        /* \"#utility.yul\":798:805   */\n      0x00\n        /* \"#utility.yul\":827:832   */\n      dup2\n        /* \"#utility.yul\":816:832   */\n      swap1\n      pop\n        /* \"#utility.yul\":761:838   */\n      swap2\n      swap1\n      pop\n      jump\t// out\n        /* \"#utility.yul\":844:966   */\n    tag_118:\n        /* \"#utility.yul\":917:941   */\n      tag_153\n        /* \"#utility.yul\":935:940   */\n      dup2\n        /* \"#utility.yul\":917:941   */\n      tag_117\n      jump\t// in\n    tag_153:\n        /* \"#utility.yul\":910:915   */\n      dup2\n        /* \"#utility.yul\":907:942   */\n      eq\n        /* \"#utility.yul\":897:960   */\n      tag_154\n      jumpi\n        /* \"#utility.yul\":956:957   */\n      0x00\n        /* \"#utility.yul\":953:954   */\n      dup1\n        /* \"#utility.yul\":946:958   */\n      revert\n        /* \"#utility.yul\":897:960   */\n    tag_154:\n        /* \"#utility.yul\":844:966   */\n      pop\n      jump\t// out\n        /* \"#utility.yul\":972:1111   */\n    tag_119:\n        /* \"#utility.yul\":1018:1023   */\n      0x00\n        /* \"#utility.yul\":1056:1062   */\n      dup2\n        /* \"#utility.yul\":1043:1063   */\n      calldataload\n        /* \"#utility.yul\":1034:1063   */\n      swap1\n      pop\n        /* \"#utility.yul\":1072:1105   */\n      tag_156\n        /* \"#utility.yul\":1099:1104   */\n      dup2\n        /* \"#utility.yul\":1072:1105   */\n      tag_118\n      jump\t// in\n    tag_156:\n        /* \"#utility.yul\":972:1111   */\n      swap3\n      swap2\n      pop\n      pop\n      jump\t// out\n        /* \"#utility.yul\":1117:1446   */\n    tag_24:\n        /* \"#utility.yul\":1176:1182   */\n      0x00\n        /* \"#utility.yul\":1225:1227   */\n      0x20\n        /* \"#utility.yul\":1213:1222   */\n      dup3\n        /* \"#utility.yul\":1204:1211   */\n      dup5\n        /* \"#utility.yul\":1200:1223   */\n      sub\n        /* \"#utility.yul\":1196:1228   */\n      slt\n        /* \"#utility.yul\":1193:1312   */\n      iszero\n      tag_158\n      jumpi\n        /* \"#utility.yul\":1231:1310   */\n      tag_159\n      tag_115\n      jump\t// in\n    tag_159:\n        /* \"#utility.yul\":1193:1312   */\n    tag_158:\n        /* \"#utility.yul\":1351:1352   */\n      0x00\n        /* \"#utility.yul\":1376:1429   */\n      tag_160\n        /* \"#utility.yul\":1421:1428   */\n      dup5\n        /* \"#utility.yul\":1412:1418   */\n      dup3\n        /* \"#utility.yul\":1401:1410   */\n      dup6\n        /* \"#utility.yul\":1397:1419   */\n      add\n        /* \"#utility.yul\":1376:1429   */\n      tag_119\n      jump\t// in\n    tag_160:\n        /* \"#utility.yul\":1366:1429   */\n      swap2\n      pop\n        /* \"#utility.yul\":1322:1439   */\n      pop\n        /* \"#utility.yul\":1117:1446   */\n      swap3\n      swap2\n      pop\n      pop\n      jump\t// out\n        /* \"#utility.yul\":1452:1551   */\n    tag_120:\n        /* \"#utility.yul\":1504:1510   */\n      0x00\n        /* \"#utility.yul\":1538:1543   */\n      dup2\n        /* \"#utility.yul\":1532:1544   */\n      mload\n        /* \"#utility.yul\":1522:1544   */\n      swap1\n      pop\n        /* \"#utility.yul\":1452:1551   */\n      swap2\n      swap1\n      pop\n      jump\t// out\n        /* \"#utility.yul\":1557:1726   */\n    tag_121:\n        /* \"#utility.yul\":1641:1652   */\n      0x00\n        /* \"#utility.yul\":1675:1681   */\n      dup3\n        /* \"#utility.yul\":1670:1673   */\n      dup3\n        /* \"#utility.yul\":1663:1682   */\n      mstore\n        /* \"#utility.yul\":1715:1719   */\n      0x20\n        /* \"#utility.yul\":1710:1713   */\n      dup3\n        /* \"#utility.yul\":1706:1720   */\n      add\n        /* \"#utility.yul\":1691:1720   */\n      swap1\n      pop\n        /* \"#utility.yul\":1557:1726   */\n      swap3\n      swap2\n      pop\n      pop\n      jump\t// out\n        /* \"#utility.yul\":1732:2039   */\n    tag_122:\n        /* \"#utility.yul\":1800:1801   */\n      0x00\n        /* \"#utility.yul\":1810:1923   */\n    tag_164:\n        /* \"#utility.yul\":1824:1830   */\n      dup4\n        /* \"#utility.yul\":1821:1822   */\n      dup2\n        /* \"#utility.yul\":1818:1831   */\n      lt\n        /* \"#utility.yul\":1810:1923   */\n      iszero\n      tag_166\n      jumpi\n        /* \"#utility.yul\":1909:1910   */\n      dup1\n        /* \"#utility.yul\":1904:1907   */\n      dup3\n        /* \"#utility.yul\":1900:1911   */\n      add\n        /* \"#utility.yul\":1894:1912   */\n      mload\n        /* \"#utility.yul\":1890:1891   */\n      dup2\n        /* \"#utility.yul\":1885:1888   */\n      dup5\n        /* \"#utility.yul\":1881:1892   */\n      add\n        /* \"#utility.yul\":1874:1913   */\n      mstore\n        /* \"#utility.yul\":1846:1848   */\n      0x20\n        /* \"#utility.yul\":1843:1844   */\n      dup2\n        /* \"#utility.yul\":1839:1849   */\n      add\n        /* \"#utility.yul\":1834:1849   */\n      swap1\n      pop\n        /* \"#utility.yul\":1810:1923   */\n      jump(tag_164)\n    tag_166:\n        /* \"#utility.yul\":1941:1947   */\n      dup4\n        /* \"#utility.yul\":1938:1939   */\n      dup2\n        /* \"#utility.yul\":1935:1948   */\n      gt\n        /* \"#utility.yul\":1932:2033   */\n      iszero\n      tag_167\n      jumpi\n        /* \"#utility.yul\":2021:2022   */\n      0x00\n        /* \"#utility.yul\":2012:2018   */\n      dup5\n        /* \"#utility.yul\":2007:2010   */\n      dup5\n        /* \"#utility.yul\":2003:2019   */\n      add\n        /* \"#utility.yul\":1996:2023   */\n      mstore\n        /* \"#utility.yul\":1932:2033   */\n    tag_167:\n        /* \"#utility.yul\":1781:2039   */\n      pop\n        /* \"#utility.yul\":1732:2039   */\n      pop\n      pop\n      pop\n      jump\t// out\n        /* \"#utility.yul\":2045:2147   */\n    tag_123:\n        /* \"#utility.yul\":2086:2092   */\n      0x00\n        /* \"#utility.yul\":2137:2139   */\n      0x1f\n        /* \"#utility.yul\":2133:2140   */\n      not\n        /* \"#utility.yul\":2128:2130   */\n      0x1f\n        /* \"#utility.yul\":2121:2126   */\n      dup4\n        /* \"#utility.yul\":2117:2131   */\n      add\n        /* \"#utility.yul\":2113:2141   */\n      and\n        /* \"#utility.yul\":2103:2141   */\n      swap1\n      pop\n        /* \"#utility.yul\":2045:2147   */\n      swap2\n      swap1\n      pop\n      jump\t// out\n        /* \"#utility.yul\":2153:2517   */\n    tag_124:\n        /* \"#utility.yul\":2241:2244   */\n      0x00\n        /* \"#utility.yul\":2269:2308   */\n      tag_170\n        /* \"#utility.yul\":2302:2307   */\n      dup3\n        /* \"#utility.yul\":2269:2308   */\n      tag_120\n      jump\t// in\n    tag_170:\n        /* \"#utility.yul\":2324:2395   */\n      tag_171\n        /* \"#utility.yul\":2388:2394   */\n      dup2\n        /* \"#utility.yul\":2383:2386   */\n      dup6\n        /* \"#utility.yul\":2324:2395   */\n      tag_121\n      jump\t// in\n    tag_171:\n        /* \"#utility.yul\":2317:2395   */\n      swap4\n      pop\n        /* \"#utility.yul\":2404:2456   */\n      tag_172\n        /* \"#utility.yul\":2449:2455   */\n      dup2\n        /* \"#utility.yul\":2444:2447   */\n      dup6\n        /* \"#utility.yul\":2437:2441   */\n      0x20\n        /* \"#utility.yul\":2430:2435   */\n      dup7\n        /* \"#utility.yul\":2426:2442   */\n      add\n        /* \"#utility.yul\":2404:2456   */\n      tag_122\n      jump\t// in\n    tag_172:\n        /* \"#utility.yul\":2481:2510   */\n      tag_173\n        /* \"#utility.yul\":2503:2509   */\n      dup2\n        /* \"#utility.yul\":2481:2510   */\n      tag_123\n      jump\t// in\n    tag_173:\n        /* \"#utility.yul\":2476:2479   */\n      dup5\n        /* \"#utility.yul\":2472:2511   */\n      add\n        /* \"#utility.yul\":2465:2511   */\n      swap2\n      pop\n        /* \"#utility.yul\":2245:2517   */\n      pop\n        /* \"#utility.yul\":2153:2517   */\n      swap3\n      swap2\n      pop\n      pop\n      jump\t// out\n        /* \"#utility.yul\":2523:2641   */\n    tag_125:\n        /* \"#utility.yul\":2610:2634   */\n      tag_175\n        /* \"#utility.yul\":2628:2633   */\n      dup2\n        /* \"#utility.yul\":2610:2634   */\n      tag_117\n      jump\t// in\n    tag_175:\n        /* \"#utility.yul\":2605:2608   */\n      dup3\n        /* \"#utility.yul\":2598:2635   */\n      mstore\n        /* \"#utility.yul\":2523:2641   */\n      pop\n      pop\n      jump\t// out\n        /* \"#utility.yul\":2647:3473   */\n    tag_27:\n        /* \"#utility.yul\":2884:2888   */\n      0x00\n        /* \"#utility.yul\":2922:2925   */\n      0x80\n        /* \"#utility.yul\":2911:2920   */\n      dup3\n        /* \"#utility.yul\":2907:2926   */\n      add\n        /* \"#utility.yul\":2899:2926   */\n      swap1\n      pop\n        /* \"#utility.yul\":2972:2981   */\n      dup2\n        /* \"#utility.yul\":2966:2970   */\n      dup2\n        /* \"#utility.yul\":2962:2982   */\n      sub\n        /* \"#utility.yul\":2958:2959   */\n      0x00\n        /* \"#utility.yul\":2947:2956   */\n      dup4\n        /* \"#utility.yul\":2943:2960   */\n      add\n        /* \"#utility.yul\":2936:2983   */\n      mstore\n        /* \"#utility.yul\":3000:3078   */\n      tag_177\n        /* \"#utility.yul\":3073:3077   */\n      dup2\n        /* \"#utility.yul\":3064:3070   */\n      dup8\n        /* \"#utility.yul\":3000:3078   */\n      tag_124\n      jump\t// in\n    tag_177:\n        /* \"#utility.yul\":2992:3078   */\n      swap1\n      pop\n        /* \"#utility.yul\":3125:3134   */\n      dup2\n        /* \"#utility.yul\":3119:3123   */\n      dup2\n        /* \"#utility.yul\":3115:3135   */\n      sub\n        /* \"#utility.yul\":3110:3112   */\n      0x20\n        /* \"#utility.yul\":3099:3108   */\n      dup4\n        /* \"#utility.yul\":3095:3113   */\n      add\n        /* \"#utility.yul\":3088:3136   */\n      mstore\n        /* \"#utility.yul\":3153:3231   */\n      tag_178\n        /* \"#utility.yul\":3226:3230   */\n      dup2\n        /* \"#utility.yul\":3217:3223   */\n      dup7\n        /* \"#utility.yul\":3153:3231   */\n      tag_124\n      jump\t// in\n    tag_178:\n        /* \"#utility.yul\":3145:3231   */\n      swap1\n      pop\n        /* \"#utility.yul\":3278:3287   */\n      dup2\n        /* \"#utility.yul\":3272:3276   */\n      dup2\n        /* \"#utility.yul\":3268:3288   */\n      sub\n        /* \"#utility.yul\":3263:3265   */\n      0x40\n        /* \"#utility.yul\":3252:3261   */\n      dup4\n        /* \"#utility.yul\":3248:3266   */\n      add\n        /* \"#utility.yul\":3241:3289   */\n      mstore\n        /* \"#utility.yul\":3306:3384   */\n      tag_179\n        /* \"#utility.yul\":3379:3383   */\n      dup2\n        /* \"#utility.yul\":3370:3376   */\n      dup6\n        /* \"#utility.yul\":3306:3384   */\n      tag_124\n      jump\t// in\n    tag_179:\n        /* \"#utility.yul\":3298:3384   */\n      swap1\n      pop\n        /* \"#utility.yul\":3394:3466   */\n      tag_180\n        /* \"#utility.yul\":3462:3464   */\n      0x60\n        /* \"#utility.yul\":3451:3460   */\n      dup4\n        /* \"#utility.yul\":3447:3465   */\n      add\n        /* \"#utility.yul\":3438:3444   */\n      dup5\n        /* \"#utility.yul\":3394:3466   */\n      tag_125\n      jump\t// in\n    tag_180:\n        /* \"#utility.yul\":2647:3473   */\n      swap6\n      swap5\n      pop\n      pop\n      pop\n      pop\n      pop\n      jump\t// out\n        /* \"#utility.yul\":3479:3792   */\n    tag_35:\n        /* \"#utility.yul\":3592:3596   */\n      0x00\n        /* \"#utility.yul\":3630:3632   */\n      0x20\n        /* \"#utility.yul\":3619:3628   */\n      dup3\n        /* \"#utility.yul\":3615:3633   */\n      add\n        /* \"#utility.yul\":3607:3633   */\n      swap1\n      pop\n        /* \"#utility.yul\":3679:3688   */\n      dup2\n        /* \"#utility.yul\":3673:3677   */\n      dup2\n        /* \"#utility.yul\":3669:3689   */\n      sub\n        /* \"#utility.yul\":3665:3666   */\n      0x00\n        /* \"#utility.yul\":3654:3663   */\n      dup4\n        /* \"#utility.yul\":3650:3667   */\n      add\n        /* \"#utility.yul\":3643:3690   */\n      mstore\n        /* \"#utility.yul\":3707:3785   */\n      tag_182\n        /* \"#utility.yul\":3780:3784   */\n      dup2\n        /* \"#utility.yul\":3771:3777   */\n      dup5\n        /* \"#utility.yul\":3707:3785   */\n      tag_124\n      jump\t// in\n    tag_182:\n        /* \"#utility.yul\":3699:3785   */\n      swap1\n      pop\n        /* \"#utility.yul\":3479:3792   */\n      swap3\n      swap2\n      pop\n      pop\n      jump\t// out\n        /* \"#utility.yul\":3798:3924   */\n    tag_126:\n        /* \"#utility.yul\":3835:3842   */\n      0x00\n        /* \"#utility.yul\":3875:3917   */\n      0xffffffffffffffffffffffffffffffffffffffff\n        /* \"#utility.yul\":3868:3873   */\n      dup3\n        /* \"#utility.yul\":3864:3918   */\n      and\n        /* \"#utility.yul\":3853:3918   */\n      swap1\n      pop\n        /* \"#utility.yul\":3798:3924   */\n      swap2\n      swap1\n      pop\n      jump\t// out\n        /* \"#utility.yul\":3930:4026   */\n    tag_127:\n        /* \"#utility.yul\":3967:3974   */\n      0x00\n        /* \"#utility.yul\":3996:4020   */\n      tag_185\n        /* \"#utility.yul\":4014:4019   */\n      dup3\n        /* \"#utility.yul\":3996:4020   */\n      tag_126\n      jump\t// in\n    tag_185:\n        /* \"#utility.yul\":3985:4020   */\n      swap1\n      pop\n        /* \"#utility.yul\":3930:4026   */\n      swap2\n      swap1\n      pop\n      jump\t// out\n        /* \"#utility.yul\":4032:4154   */\n    tag_128:\n        /* \"#utility.yul\":4105:4129   */\n      tag_187\n        /* \"#utility.yul\":4123:4128   */\n      dup2\n        /* \"#utility.yul\":4105:4129   */\n      tag_127\n      jump\t// in\n    tag_187:\n        /* \"#utility.yul\":4098:4103   */\n      dup2\n        /* \"#utility.yul\":4095:4130   */\n      eq\n        /* \"#utility.yul\":4085:4148   */\n      tag_188\n      jumpi\n        /* \"#utility.yul\":4144:4145   */\n      0x00\n        /* \"#utility.yul\":4141:4142   */\n      dup1\n        /* \"#utility.yul\":4134:4146   */\n      revert\n        /* \"#utility.yul\":4085:4148   */\n    tag_188:\n        /* \"#utility.yul\":4032:4154   */\n      pop\n      jump\t// out\n        /* \"#utility.yul\":4160:4299   */\n    tag_129:\n        /* \"#utility.yul\":4206:4211   */\n      0x00\n        /* \"#utility.yul\":4244:4250   */\n      dup2\n        /* \"#utility.yul\":4231:4251   */\n      calldataload\n        /* \"#utility.yul\":4222:4251   */\n      swap1\n      pop\n        /* \"#utility.yul\":4260:4293   */\n      tag_190\n        /* \"#utility.yul\":4287:4292   */\n      dup2\n        /* \"#utility.yul\":4260:4293   */\n      tag_128\n      jump\t// in\n    tag_190:\n        /* \"#utility.yul\":4160:4299   */\n      swap3\n      swap2\n      pop\n      pop\n      jump\t// out\n        /* \"#utility.yul\":4305:4634   */\n    tag_41:\n        /* \"#utility.yul\":4364:4370   */\n      0x00\n        /* \"#utility.yul\":4413:4415   */\n      0x20\n        /* \"#utility.yul\":4401:4410   */\n      dup3\n        /* \"#utility.yul\":4392:4399   */\n      dup5\n        /* \"#utility.yul\":4388:4411   */\n      sub\n        /* \"#utility.yul\":4384:4416   */\n      slt\n        /* \"#utility.yul\":4381:4500   */\n      iszero\n      tag_192\n      jumpi\n        /* \"#utility.yul\":4419:4498   */\n      tag_193\n      tag_115\n      jump\t// in\n    tag_193:\n        /* \"#utility.yul\":4381:4500   */\n    tag_192:\n        /* \"#utility.yul\":4539:4540   */\n      0x00\n        /* \"#utility.yul\":4564:4617   */\n      tag_194\n        /* \"#utility.yul\":4609:4616   */\n      dup5\n        /* \"#utility.yul\":4600:4606   */\n      dup3\n        /* \"#utility.yul\":4589:4598   */\n      dup6\n        /* \"#utility.yul\":4585:4607   */\n      add\n        /* \"#utility.yul\":4564:4617   */\n      tag_129\n      jump\t// in\n    tag_194:\n        /* \"#utility.yul\":4554:4617   */\n      swap2\n      pop\n        /* \"#utility.yul\":4510:4627   */\n      pop\n        /* \"#utility.yul\":4305:4634   */\n      swap3\n      swap2\n      pop\n      pop\n      jump\t// out\n        /* \"#utility.yul\":4640:4862   */\n    tag_47:\n        /* \"#utility.yul\":4733:4737   */\n      0x00\n        /* \"#utility.yul\":4771:4773   */\n      0x20\n        /* \"#utility.yul\":4760:4769   */\n      dup3\n        /* \"#utility.yul\":4756:4774   */\n      add\n        /* \"#utility.yul\":4748:4774   */\n      swap1\n      pop\n        /* \"#utility.yul\":4784:4855   */\n      tag_196\n        /* \"#utility.yul\":4852:4853   */\n      0x00\n        /* \"#utility.yul\":4841:4850   */\n      dup4\n        /* \"#utility.yul\":4837:4854   */\n      add\n        /* \"#utility.yul\":4828:4834   */\n      dup5\n        /* \"#utility.yul\":4784:4855   */\n      tag_125\n      jump\t// in\n    tag_196:\n        /* \"#utility.yul\":4640:4862   */\n      swap3\n      swap2\n      pop\n      pop\n      jump\t// out\n        /* \"#utility.yul\":4868:4985   */\n    tag_130:\n        /* \"#utility.yul\":4977:4978   */\n      0x00\n        /* \"#utility.yul\":4974:4975   */\n      dup1\n        /* \"#utility.yul\":4967:4979   */\n      revert\n        /* \"#utility.yul\":4991:5108   */\n    tag_131:\n        /* \"#utility.yul\":5100:5101   */\n      0x00\n        /* \"#utility.yul\":5097:5098   */\n      dup1\n        /* \"#utility.yul\":5090:5102   */\n      revert\n        /* \"#utility.yul\":5114:5294   */\n    tag_132:\n        /* \"#utility.yul\":5162:5239   */\n      0x4e487b7100000000000000000000000000000000000000000000000000000000\n        /* \"#utility.yul\":5159:5160   */\n      0x00\n        /* \"#utility.yul\":5152:5240   */\n      mstore\n        /* \"#utility.yul\":5259:5263   */\n      0x41\n        /* \"#utility.yul\":5256:5257   */\n      0x04\n        /* \"#utility.yul\":5249:5264   */\n      mstore\n        /* \"#utility.yul\":5283:5287   */\n      0x24\n        /* \"#utility.yul\":5280:5281   */\n      0x00\n        /* \"#utility.yul\":5273:5288   */\n      revert\n        /* \"#utility.yul\":5300:5581   */\n    tag_133:\n        /* \"#utility.yul\":5383:5410   */\n      tag_201\n        /* \"#utility.yul\":5405:5409   */\n      dup3\n        /* \"#utility.yul\":5383:5410   */\n      tag_123\n      jump\t// in\n    tag_201:\n        /* \"#utility.yul\":5375:5381   */\n      dup2\n        /* \"#utility.yul\":5371:5411   */\n      add\n        /* \"#utility.yul\":5513:5519   */\n      dup2\n        /* \"#utility.yul\":5501:5511   */\n      dup2\n        /* \"#utility.yul\":5498:5520   */\n      lt\n        /* \"#utility.yul\":5477:5495   */\n      0xffffffffffffffff\n        /* \"#utility.yul\":5465:5475   */\n      dup3\n        /* \"#utility.yul\":5462:5496   */\n      gt\n        /* \"#utility.yul\":5459:5521   */\n      or\n        /* \"#utility.yul\":5456:5544   */\n      iszero\n      tag_202\n      jumpi\n        /* \"#utility.yul\":5524:5542   */\n      tag_203\n      tag_132\n      jump\t// in\n    tag_203:\n        /* \"#utility.yul\":5456:5544   */\n    tag_202:\n        /* \"#utility.yul\":5564:5574   */\n      dup1\n        /* \"#utility.yul\":5560:5562   */\n      0x40\n        /* \"#utility.yul\":5553:5575   */\n      mstore\n        /* \"#utility.yul\":5343:5581   */\n      pop\n        /* \"#utility.yul\":5300:5581   */\n      pop\n      pop\n      jump\t// out\n        /* \"#utility.yul\":5587:5716   */\n    tag_134:\n        /* \"#utility.yul\":5621:5627   */\n      0x00\n        /* \"#utility.yul\":5648:5668   */\n      tag_205\n      tag_114\n      jump\t// in\n    tag_205:\n        /* \"#utility.yul\":5638:5668   */\n      swap1\n      pop\n        /* \"#utility.yul\":5677:5710   */\n      tag_206\n        /* \"#utility.yul\":5705:5709   */\n      dup3\n        /* \"#utility.yul\":5697:5703   */\n      dup3\n        /* \"#utility.yul\":5677:5710   */\n      tag_133\n      jump\t// in\n    tag_206:\n        /* \"#utility.yul\":5587:5716   */\n      swap2\n      swap1\n      pop\n      jump\t// out\n        /* \"#utility.yul\":5722:6030   */\n    tag_135:\n        /* \"#utility.yul\":5784:5788   */\n      0x00\n        /* \"#utility.yul\":5874:5892   */\n      0xffffffffffffffff\n        /* \"#utility.yul\":5866:5872   */\n      dup3\n        /* \"#utility.yul\":5863:5893   */\n      gt\n        /* \"#utility.yul\":5860:5916   */\n      iszero\n      tag_208\n      jumpi\n        /* \"#utility.yul\":5896:5914   */\n      tag_209\n      tag_132\n      jump\t// in\n    tag_209:\n        /* \"#utility.yul\":5860:5916   */\n    tag_208:\n        /* \"#utility.yul\":5934:5963   */\n      tag_210\n        /* \"#utility.yul\":5956:5962   */\n      dup3\n        /* \"#utility.yul\":5934:5963   */\n      tag_123\n      jump\t// in\n    tag_210:\n        /* \"#utility.yul\":5926:5963   */\n      swap1\n      pop\n        /* \"#utility.yul\":6018:6022   */\n      0x20\n        /* \"#utility.yul\":6012:6016   */\n      dup2\n        /* \"#utility.yul\":6008:6023   */\n      add\n        /* \"#utility.yul\":6000:6023   */\n      swap1\n      pop\n        /* \"#utility.yul\":5722:6030   */\n      swap2\n      swap1\n      pop\n      jump\t// out\n        /* \"#utility.yul\":6036:6190   */\n    tag_136:\n        /* \"#utility.yul\":6120:6126   */\n      dup3\n        /* \"#utility.yul\":6115:6118   */\n      dup2\n        /* \"#utility.yul\":6110:6113   */\n      dup4\n        /* \"#utility.yul\":6097:6127   */\n      calldatacopy\n        /* \"#utility.yul\":6182:6183   */\n      0x00\n        /* \"#utility.yul\":6173:6179   */\n      dup4\n        /* \"#utility.yul\":6168:6171   */\n      dup4\n        /* \"#utility.yul\":6164:6180   */\n      add\n        /* \"#utility.yul\":6157:6184   */\n      mstore\n        /* \"#utility.yul\":6036:6190   */\n      pop\n      pop\n      pop\n      jump\t// out\n        /* \"#utility.yul\":6196:6608   */\n    tag_137:\n        /* \"#utility.yul\":6274:6279   */\n      0x00\n        /* \"#utility.yul\":6299:6365   */\n      tag_213\n        /* \"#utility.yul\":6315:6364   */\n      tag_214\n        /* \"#utility.yul\":6357:6363   */\n      dup5\n        /* \"#utility.yul\":6315:6364   */\n      tag_135\n      jump\t// in\n    tag_214:\n        /* \"#utility.yul\":6299:6365   */\n      tag_134\n      jump\t// in\n    tag_213:\n        /* \"#utility.yul\":6290:6365   */\n      swap1\n      pop\n        /* \"#utility.yul\":6388:6394   */\n      dup3\n        /* \"#utility.yul\":6381:6386   */\n      dup2\n        /* \"#utility.yul\":6374:6395   */\n      mstore\n        /* \"#utility.yul\":6426:6430   */\n      0x20\n        /* \"#utility.yul\":6419:6424   */\n      dup2\n        /* \"#utility.yul\":6415:6431   */\n      add\n        /* \"#utility.yul\":6464:6467   */\n      dup5\n        /* \"#utility.yul\":6455:6461   */\n      dup5\n        /* \"#utility.yul\":6450:6453   */\n      dup5\n        /* \"#utility.yul\":6446:6462   */\n      add\n        /* \"#utility.yul\":6443:6468   */\n      gt\n        /* \"#utility.yul\":6440:6552   */\n      iszero\n      tag_215\n      jumpi\n        /* \"#utility.yul\":6471:6550   */\n      tag_216\n      tag_131\n      jump\t// in\n    tag_216:\n        /* \"#utility.yul\":6440:6552   */\n    tag_215:\n        /* \"#utility.yul\":6561:6602   */\n      tag_217\n        /* \"#utility.yul\":6595:6601   */\n      dup5\n        /* \"#utility.yul\":6590:6593   */\n      dup3\n        /* \"#utility.yul\":6585:6588   */\n      dup6\n        /* \"#utility.yul\":6561:6602   */\n      tag_136\n      jump\t// in\n    tag_217:\n        /* \"#utility.yul\":6280:6608   */\n      pop\n        /* \"#utility.yul\":6196:6608   */\n      swap4\n      swap3\n      pop\n      pop\n      pop\n      jump\t// out\n        /* \"#utility.yul\":6628:6968   */\n    tag_138:\n        /* \"#utility.yul\":6684:6689   */\n      0x00\n        /* \"#utility.yul\":6733:6736   */\n      dup3\n        /* \"#utility.yul\":6726:6730   */\n      0x1f\n        /* \"#utility.yul\":6718:6724   */\n      dup4\n        /* \"#utility.yul\":6714:6731   */\n      add\n        /* \"#utility.yul\":6710:6737   */\n      slt\n        /* \"#utility.yul\":6700:6822   */\n      tag_219\n      jumpi\n        /* \"#utility.yul\":6741:6820   */\n      tag_220\n      tag_130\n      jump\t// in\n    tag_220:\n        /* \"#utility.yul\":6700:6822   */\n    tag_219:\n        /* \"#utility.yul\":6858:6864   */\n      dup2\n        /* \"#utility.yul\":6845:6865   */\n      calldataload\n        /* \"#utility.yul\":6883:6962   */\n      tag_221\n        /* \"#utility.yul\":6958:6961   */\n      dup5\n        /* \"#utility.yul\":6950:6956   */\n      dup3\n        /* \"#utility.yul\":6943:6947   */\n      0x20\n        /* \"#utility.yul\":6935:6941   */\n      dup7\n        /* \"#utility.yul\":6931:6948   */\n      add\n        /* \"#utility.yul\":6883:6962   */\n      tag_137\n      jump\t// in\n    tag_221:\n        /* \"#utility.yul\":6874:6962   */\n      swap2\n      pop\n        /* \"#utility.yul\":6690:6968   */\n      pop\n        /* \"#utility.yul\":6628:6968   */\n      swap3\n      swap2\n      pop\n      pop\n      jump\t// out\n        /* \"#utility.yul\":6974:8133   */\n    tag_50:\n        /* \"#utility.yul\":7081:7087   */\n      0x00\n        /* \"#utility.yul\":7089:7095   */\n      dup1\n        /* \"#utility.yul\":7097:7103   */\n      0x00\n        /* \"#utility.yul\":7146:7148   */\n      0x60\n        /* \"#utility.yul\":7134:7143   */\n      dup5\n        /* \"#utility.yul\":7125:7132   */\n      dup7\n        /* \"#utility.yul\":7121:7144   */\n      sub\n        /* \"#utility.yul\":7117:7149   */\n      slt\n        /* \"#utility.yul\":7114:7233   */\n      iszero\n      tag_223\n      jumpi\n        /* \"#utility.yul\":7152:7231   */\n      tag_224\n      tag_115\n      jump\t// in\n    tag_224:\n        /* \"#utility.yul\":7114:7233   */\n    tag_223:\n        /* \"#utility.yul\":7300:7301   */\n      0x00\n        /* \"#utility.yul\":7289:7298   */\n      dup5\n        /* \"#utility.yul\":7285:7302   */\n      add\n        /* \"#utility.yul\":7272:7303   */\n      calldataload\n        /* \"#utility.yul\":7330:7348   */\n      0xffffffffffffffff\n        /* \"#utility.yul\":7322:7328   */\n      dup2\n        /* \"#utility.yul\":7319:7349   */\n      gt\n        /* \"#utility.yul\":7316:7433   */\n      iszero\n      tag_225\n      jumpi\n        /* \"#utility.yul\":7352:7431   */\n      tag_226\n      tag_116\n      jump\t// in\n    tag_226:\n        /* \"#utility.yul\":7316:7433   */\n    tag_225:\n        /* \"#utility.yul\":7457:7520   */\n      tag_227\n        /* \"#utility.yul\":7512:7519   */\n      dup7\n        /* \"#utility.yul\":7503:7509   */\n      dup3\n        /* \"#utility.yul\":7492:7501   */\n      dup8\n        /* \"#utility.yul\":7488:7510   */\n      add\n        /* \"#utility.yul\":7457:7520   */\n      tag_138\n      jump\t// in\n    tag_227:\n        /* \"#utility.yul\":7447:7520   */\n      swap4\n      pop\n        /* \"#utility.yul\":7243:7530   */\n      pop\n        /* \"#utility.yul\":7597:7599   */\n      0x20\n        /* \"#utility.yul\":7586:7595   */\n      dup5\n        /* \"#utility.yul\":7582:7600   */\n      add\n        /* \"#utility.yul\":7569:7601   */\n      calldataload\n        /* \"#utility.yul\":7628:7646   */\n      0xffffffffffffffff\n        /* \"#utility.yul\":7620:7626   */\n      dup2\n        /* \"#utility.yul\":7617:7647   */\n      gt\n        /* \"#utility.yul\":7614:7731   */\n      iszero\n      tag_228\n      jumpi\n        /* \"#utility.yul\":7650:7729   */\n      tag_229\n      tag_116\n      jump\t// in\n    tag_229:\n        /* \"#utility.yul\":7614:7731   */\n    tag_228:\n        /* \"#utility.yul\":7755:7818   */\n      tag_230\n        /* \"#utility.yul\":7810:7817   */\n      dup7\n        /* \"#utility.yul\":7801:7807   */\n      dup3\n        /* \"#utility.yul\":7790:7799   */\n      dup8\n        /* \"#utility.yul\":7786:7808   */\n      add\n        /* \"#utility.yul\":7755:7818   */\n      tag_138\n      jump\t// in\n    tag_230:\n        /* \"#utility.yul\":7745:7818   */\n      swap3\n      pop\n        /* \"#utility.yul\":7540:7828   */\n      pop\n        /* \"#utility.yul\":7895:7897   */\n      0x40\n        /* \"#utility.yul\":7884:7893   */\n      dup5\n        /* \"#utility.yul\":7880:7898   */\n      add\n        /* \"#utility.yul\":7867:7899   */\n      calldataload\n        /* \"#utility.yul\":7926:7944   */\n      0xffffffffffffffff\n        /* \"#utility.yul\":7918:7924   */\n      dup2\n        /* \"#utility.yul\":7915:7945   */\n      gt\n        /* \"#utility.yul\":7912:8029   */\n      iszero\n      tag_231\n      jumpi\n        /* \"#utility.yul\":7948:8027   */\n      tag_232\n      tag_116\n      jump\t// in\n    tag_232:\n        /* \"#utility.yul\":7912:8029   */\n    tag_231:\n        /* \"#utility.yul\":8053:8116   */\n      tag_233\n        /* \"#utility.yul\":8108:8115   */\n      dup7\n        /* \"#utility.yul\":8099:8105   */\n      dup3\n        /* \"#utility.yul\":8088:8097   */\n      dup8\n        /* \"#utility.yul\":8084:8106   */\n      add\n        /* \"#utility.yul\":8053:8116   */\n      tag_138\n      jump\t// in\n    tag_233:\n        /* \"#utility.yul\":8043:8116   */\n      swap2\n      pop\n        /* \"#utility.yul\":7838:8126   */\n      pop\n        /* \"#utility.yul\":6974:8133   */\n      swap3\n      pop\n      swap3\n      pop\n      swap3\n      jump\t// out\n        /* \"#utility.yul\":8139:8257   */\n    tag_139:\n        /* \"#utility.yul\":8226:8250   */\n      tag_235\n        /* \"#utility.yul\":8244:8249   */\n      dup2\n        /* \"#utility.yul\":8226:8250   */\n      tag_127\n      jump\t// in\n    tag_235:\n        /* \"#utility.yul\":8221:8224   */\n      dup3\n        /* \"#utility.yul\":8214:8251   */\n      mstore\n        /* \"#utility.yul\":8139:8257   */\n      pop\n      pop\n      jump\t// out\n        /* \"#utility.yul\":8263:8485   */\n    tag_55:\n        /* \"#utility.yul\":8356:8360   */\n      0x00\n        /* \"#utility.yul\":8394:8396   */\n      0x20\n        /* \"#utility.yul\":8383:8392   */\n      dup3\n        /* \"#utility.yul\":8379:8397   */\n      add\n        /* \"#utility.yul\":8371:8397   */\n      swap1\n      pop\n        /* \"#utility.yul\":8407:8478   */\n      tag_237\n        /* \"#utility.yul\":8475:8476   */\n      0x00\n        /* \"#utility.yul\":8464:8473   */\n      dup4\n        /* \"#utility.yul\":8460:8477   */\n      add\n        /* \"#utility.yul\":8451:8457   */\n      dup5\n        /* \"#utility.yul\":8407:8478   */\n      tag_139\n      jump\t// in\n    tag_237:\n        /* \"#utility.yul\":8263:8485   */\n      swap3\n      swap2\n      pop\n      pop\n      jump\t// out\n        /* \"#utility.yul\":8491:8671   */\n    tag_140:\n        /* \"#utility.yul\":8539:8616   */\n      0x4e487b7100000000000000000000000000000000000000000000000000000000\n        /* \"#utility.yul\":8536:8537   */\n      0x00\n        /* \"#utility.yul\":8529:8617   */\n      mstore\n        /* \"#utility.yul\":8636:8640   */\n      0x22\n        /* \"#utility.yul\":8633:8634   */\n      0x04\n        /* \"#utility.yul\":8626:8641   */\n      mstore\n        /* \"#utility.yul\":8660:8664   */\n      0x24\n        /* \"#utility.yul\":8657:8658   */\n      0x00\n        /* \"#utility.yul\":8650:8665   */\n      revert\n        /* \"#utility.yul\":8677:8997   */\n    tag_57:\n        /* \"#utility.yul\":8721:8727   */\n      0x00\n        /* \"#utility.yul\":8758:8759   */\n      0x02\n        /* \"#utility.yul\":8752:8756   */\n      dup3\n        /* \"#utility.yul\":8748:8760   */\n      div\n        /* \"#utility.yul\":8738:8760   */\n      swap1\n      pop\n        /* \"#utility.yul\":8805:8806   */\n      0x01\n        /* \"#utility.yul\":8799:8803   */\n      dup3\n        /* \"#utility.yul\":8795:8807   */\n      and\n        /* \"#utility.yul\":8826:8844   */\n      dup1\n        /* \"#utility.yul\":8816:8897   */\n      tag_240\n      jumpi\n        /* \"#utility.yul\":8882:8886   */\n      0x7f\n        /* \"#utility.yul\":8874:8880   */\n      dup3\n        /* \"#utility.yul\":8870:8887   */\n      and\n        /* \"#utility.yul\":8860:8887   */\n      swap2\n      pop\n        /* \"#utility.yul\":8816:8897   */\n    tag_240:\n        /* \"#utility.yul\":8944:8946   */\n      0x20\n        /* \"#utility.yul\":8936:8942   */\n      dup3\n        /* \"#utility.yul\":8933:8947   */\n      lt\n        /* \"#utility.yul\":8913:8931   */\n      dup2\n        /* \"#utility.yul\":8910:8948   */\n      eq\n        /* \"#utility.yul\":8907:8991   */\n      iszero\n      tag_241\n      jumpi\n        /* \"#utility.yul\":8963:8981   */\n      tag_242\n      tag_140\n      jump\t// in\n    tag_242:\n        /* \"#utility.yul\":8907:8991   */\n    tag_241:\n        /* \"#utility.yul\":8728:8997   */\n      pop\n        /* \"#utility.yul\":8677:8997   */\n      swap2\n      swap1\n      pop\n      jump\t// out\n        /* \"#utility.yul\":9003:9183   */\n    tag_141:\n        /* \"#utility.yul\":9051:9128   */\n      0x4e487b7100000000000000000000000000000000000000000000000000000000\n        /* \"#utility.yul\":9048:9049   */\n      0x00\n        /* \"#utility.yul\":9041:9129   */\n      mstore\n        /* \"#utility.yul\":9148:9152   */\n      0x11\n        /* \"#utility.yul\":9145:9146   */\n      0x04\n        /* \"#utility.yul\":9138:9153   */\n      mstore\n        /* \"#utility.yul\":9172:9176   */\n      0x24\n        /* \"#utility.yul\":9169:9170   */\n      0x00\n        /* \"#utility.yul\":9162:9177   */\n      revert\n        /* \"#utility.yul\":9189:9422   */\n    tag_91:\n        /* \"#utility.yul\":9228:9231   */\n      0x00\n        /* \"#utility.yul\":9251:9275   */\n      tag_245\n        /* \"#utility.yul\":9269:9274   */\n      dup3\n        /* \"#utility.yul\":9251:9275   */\n      tag_117\n      jump\t// in\n    tag_245:\n        /* \"#utility.yul\":9242:9275   */\n      swap2\n      pop\n        /* \"#utility.yul\":9297:9363   */\n      0xffffffffffffffffffffffffffffffffffffffffffffffffffffffffffffffff\n        /* \"#utility.yul\":9290:9295   */\n      dup3\n        /* \"#utility.yul\":9287:9364   */\n      eq\n        /* \"#utility.yul\":9284:9387   */\n      iszero\n      tag_246\n      jumpi\n        /* \"#utility.yul\":9367:9385   */\n      tag_247\n      tag_141\n      jump\t// in\n    tag_247:\n        /* \"#utility.yul\":9284:9387   */\n    tag_246:\n        /* \"#utility.yul\":9414:9415   */\n      0x01\n        /* \"#utility.yul\":9407:9412   */\n      dup3\n        /* \"#utility.yul\":9403:9416   */\n      add\n        /* \"#utility.yul\":9396:9416   */\n      swap1\n      pop\n        /* \"#utility.yul\":9189:9422   */\n      swap2\n      swap1\n      pop\n      jump\t// out\n\n    auxdata: 0xa2646970667358221220bf1323e295d06d696aebe92b042678445744107f2ce767c8e5ebddcc8cdb2a1864736f6c634300080b0033\n}\n","bytecode":{"linkReferences":{},"object":"60806040523480156200001157600080fd5b50604051620012783803806200127883398181016040528101906200003791906200034b565b80600260006101000a81548173ffffffffffffffffffffffffffffffffffffffff021916908373ffffffffffffffffffffffffffffffffffffffff16021790555081600490805190602001906200009092919062000099565b50505062000416565b828054620000a790620003e0565b90600052602060002090601f016020900481019282620000cb576000855562000117565b82601f10620000e657805160ff191683800117855562000117565b8280016001018555821562000117579182015b8281111562000116578251825591602001919060010190620000f9565b5b5090506200012691906200012a565b5090565b5b80821115620001455760008160009055506001016200012b565b5090565b6000604051905090565b600080fd5b600080fd5b600080fd5b600080fd5b6000601f19601f8301169050919050565b7f4e487b7100000000000000000000000000000000000000000000000000000000600052604160045260246000fd5b620001b28262000167565b810181811067ffffffffffffffff82111715620001d457620001d362000178565b5b80604052505050565b6000620001e962000149565b9050620001f78282620001a7565b919050565b600067ffffffffffffffff8211156200021a576200021962000178565b5b620002258262000167565b9050602081019050919050565b60005b838110156200025257808201518184015260208101905062000235565b8381111562000262576000848401525b50505050565b60006200027f6200027984620001fc565b620001dd565b9050828152602081018484840111156200029e576200029d62000162565b5b620002ab84828562000232565b509392505050565b600082601f830112620002cb57620002ca6200015d565b5b8151620002dd84826020860162000268565b91505092915050565b600073ffffffffffffffffffffffffffffffffffffffff82169050919050565b60006200031382620002e6565b9050919050565b620003258162000306565b81146200033157600080fd5b50565b60008151905062000345816200031a565b92915050565b6000806040838503121562000365576200036462000153565b5b600083015167ffffffffffffffff81111562000386576200038562000158565b5b6200039485828601620002b3565b9250506020620003a78582860162000334565b9150509250929050565b7f4e487b7100000000000000000000000000000000000000000000000000000000600052602260045260246000fd5b60006002820490506001821680620003f957607f821691505b6020821081141562000410576200040f620003b1565b5b50919050565b610e5280620004266000396000f3fe608060405234801561001057600080fd5b50600436106100a95760003560e01c806385e8e7a71161007157806385e8e7a7146101315780638c08a4dc1461014f578063a3ec138d1461016b578063a9a981a31461019b578063ad71f8dc146101b9578063f851a440146101d5576100a9565b806312fa6feb146100ae5780631f2698ab146100cc5780633477ee2e146100ea57806359f784681461011d57806362d73eb814610127575b600080fd5b6100b66101f3565b6040516100c391906108e1565b60405180910390f35b6100d4610206565b6040516100e191906108e1565b60405180910390f35b61010460048036038101906100ff9190610946565b610219565b6040516101149493929190610a1b565b60405180910390f35b6101256103e1565b005b61012f61048c565b005b610139610538565b6040516101469190610a75565b60405180910390f35b61016960048036038101906101649190610946565b6105c6565b005b61018560048036038101906101809190610af5565b6106c2565b60405161019291906108e1565b60405180910390f35b6101a36106e2565b6040516101b09190610b22565b60405180910390f35b6101d360048036038101906101ce9190610c72565b6106e8565b005b6101dd6107fd565b6040516101ea9190610d28565b60405180910390f35b600560019054906101000a900460ff1681565b600560009054906101000a900460ff1681565b600060205280600052604060002060009150905080600001805461023c90610d72565b80601f016020809104026020016040519081016040528092919081815260200182805461026890610d72565b80156102b55780601f1061028a576101008083540402835291602001916102b5565b820191906000526020600020905b81548152906001019060200180831161029857829003601f168201915b5050505050908060010180546102ca90610d72565b80601f01602080910402602001604051908101604052809291908181526020018280546102f690610d72565b80156103435780601f1061031857610100808354040283529160200191610343565b820191906000526020600020905b81548152906001019060200180831161032657829003601f168201915b50505050509080600201805461035890610d72565b80601f016020809104026020016040519081016040528092919081815260200182805461038490610d72565b80156103d15780601f106103a6576101008083540402835291602001916103d1565b820191906000526020600020905b8154815290600101906020018083116103b457829003601f168201915b5050505050908060030154905084565b600260009054906101000a900473ffffffffffffffffffffffffffffffffffffffff1673ffffffffffffffffffffffffffffffffffffffff163373ffffffffffffffffffffffffffffffffffffffff161461043b57600080fd5b600560009054906101000a900460ff1661045457600080fd5b6000600560006101000a81548160ff0219169083151502179055506001600560016101000a81548160ff021916908315150217905550565b600260009054906101000a900473ffffffffffffffffffffffffffffffffffffffff1673ffffffffffffffffffffffffffffffffffffffff163373ffffffffffffffffffffffffffffffffffffffff16146104e657600080fd5b600560009054906101000a900460ff161561050057600080fd5b6001600560006101000a81548160ff0219169083151502179055506001600560016101000a81548160ff021916908315150217905550565b6004805461054590610d72565b80601f016020809104026020016040519081016040528092919081815260200182805461057190610d72565b80156105be5780601f10610593576101008083540402835291602001916105be565b820191906000526020600020905b8154815290600101906020018083116105a157829003601f168201915b505050505081565b600560009054906101000a900460ff166105df57600080fd5b60008060008381526020019081526020016000209050600360003373ffffffffffffffffffffffffffffffffffffffff1673ffffffffffffffffffffffffffffffffffffffff16815260200190815260200160002060009054906101000a900460ff161561064c57600080fd5b80600301600081548092919061066190610dd3565b91905055506001600360003373ffffffffffffffffffffffffffffffffffffffff1673ffffffffffffffffffffffffffffffffffffffff16815260200190815260200160002060006101000a81548160ff0219169083151502179055505050565b60036020528060005260406000206000915054906101000a900460ff1681565b60015481565b600260009054906101000a900473ffffffffffffffffffffffffffffffffffffffff1673ffffffffffffffffffffffffffffffffffffffff163373ffffffffffffffffffffffffffffffffffffffff161461074257600080fd5b600560019054906101000a900460ff161561075c57600080fd5b600560009054906101000a900460ff161561077657600080fd5b60008060006001600081548092919061078e90610dd3565b9190505581526020019081526020016000209050838160000190805190602001906107ba929190610823565b50828160010190805190602001906107d3929190610823565b50818160020190805190602001906107ec929190610823565b506000816003018190555050505050565b600260009054906101000a900473ffffffffffffffffffffffffffffffffffffffff1681565b82805461082f90610d72565b90600052602060002090601f0160209004810192826108515760008555610898565b82601f1061086a57805160ff1916838001178555610898565b82800160010185558215610898579182015b8281111561089757825182559160200191906001019061087c565b5b5090506108a591906108a9565b5090565b5b808211156108c25760008160009055506001016108aa565b5090565b60008115159050919050565b6108db816108c6565b82525050565b60006020820190506108f660008301846108d2565b92915050565b6000604051905090565b600080fd5b600080fd5b6000819050919050565b61092381610910565b811461092e57600080fd5b50565b6000813590506109408161091a565b92915050565b60006020828403121561095c5761095b610906565b5b600061096a84828501610931565b91505092915050565b600081519050919050565b600082825260208201905092915050565b60005b838110156109ad578082015181840152602081019050610992565b838111156109bc576000848401525b50505050565b6000601f19601f8301169050919050565b60006109de82610973565b6109e8818561097e565b93506109f881856020860161098f565b610a01816109c2565b840191505092915050565b610a1581610910565b82525050565b60006080820190508181036000830152610a3581876109d3565b90508181036020830152610a4981866109d3565b90508181036040830152610a5d81856109d3565b9050610a6c6060830184610a0c565b95945050505050565b60006020820190508181036000830152610a8f81846109d3565b905092915050565b600073ffffffffffffffffffffffffffffffffffffffff82169050919050565b6000610ac282610a97565b9050919050565b610ad281610ab7565b8114610add57600080fd5b50565b600081359050610aef81610ac9565b92915050565b600060208284031215610b0b57610b0a610906565b5b6000610b1984828501610ae0565b91505092915050565b6000602082019050610b376000830184610a0c565b92915050565b600080fd5b600080fd5b7f4e487b7100000000000000000000000000000000000000000000000000000000600052604160045260246000fd5b610b7f826109c2565b810181811067ffffffffffffffff82111715610b9e57610b9d610b47565b5b80604052505050565b6000610bb16108fc565b9050610bbd8282610b76565b919050565b600067ffffffffffffffff821115610bdd57610bdc610b47565b5b610be6826109c2565b9050602081019050919050565b82818337600083830152505050565b6000610c15610c1084610bc2565b610ba7565b905082815260208101848484011115610c3157610c30610b42565b5b610c3c848285610bf3565b509392505050565b600082601f830112610c5957610c58610b3d565b5b8135610c69848260208601610c02565b91505092915050565b600080600060608486031215610c8b57610c8a610906565b5b600084013567ffffffffffffffff811115610ca957610ca861090b565b5b610cb586828701610c44565b935050602084013567ffffffffffffffff811115610cd657610cd561090b565b5b610ce286828701610c44565b925050604084013567ffffffffffffffff811115610d0357610d0261090b565b5b610d0f86828701610c44565b9150509250925092565b610d2281610ab7565b82525050565b6000602082019050610d3d6000830184610d19565b92915050565b7f4e487b7100000000000000000000000000000000000000000000000000000000600052602260045260246000fd5b60006002820490506001821680610d8a57607f821691505b60208210811415610d9e57610d9d610d43565b5b50919050565b7f4e487b7100000000000000000000000000000000000000000000000000000000600052601160045260246000fd5b6000610dde82610910565b91507fffffffffffffffffffffffffffffffffffffffffffffffffffffffffffffffff821415610e1157610e10610da4565b5b60018201905091905056fea2646970667358221220bf1323e295d06d696aebe92b042678445744107f2ce767c8e5ebddcc8cdb2a1864736f6c634300080b0033","opcodes":"PUSH1 0x80 PUSH1 0x40 MSTORE CALLVALUE DUP1 ISZERO PUSH3 0x11 JUMPI PUSH1 0x0 DUP1 REVERT JUMPDEST POP PUSH1 0x40 MLOAD PUSH3 0x1278 CODESIZE SUB DUP1 PUSH3 0x1278 DUP4 CODECOPY DUP2 DUP2 ADD PUSH1 0x40 MSTORE DUP2 ADD SWAP1 PUSH3 0x37 SWAP2 SWAP1 PUSH3 0x34B JUMP JUMPDEST DUP1 PUSH1 0x2 PUSH1 0x0 PUSH2 0x100 EXP DUP2 SLOAD DUP2 PUSH20 0xFFFFFFFFFFFFFFFFFFFFFFFFFFFFFFFFFFFFFFFF MUL NOT AND SWAP1 DUP4 PUSH20 0xFFFFFFFFFFFFFFFFFFFFFFFFFFFFFFFFFFFFFFFF AND MUL OR SWAP1 SSTORE POP DUP2 PUSH1 0x4 SWAP1 DUP1 MLOAD SWAP1 PUSH1 0x20 ADD SWAP1 PUSH3 0x90 SWAP3 SWAP2 SWAP1 PUSH3 0x99 JUMP JUMPDEST POP POP POP PUSH3 0x416 JUMP JUMPDEST DUP3 DUP1 SLOAD PUSH3 0xA7 SWAP1 PUSH3 0x3E0 JUMP JUMPDEST SWAP1 PUSH1 0x0 MSTORE PUSH1 0x20 PUSH1 0x0 KECCAK256 SWAP1 PUSH1 0x1F ADD PUSH1 0x20 SWAP1 DIV DUP2 ADD SWAP3 DUP3 PUSH3 0xCB JUMPI PUSH1 0x0 DUP6 SSTORE PUSH3 0x117 JUMP JUMPDEST DUP3 PUSH1 0x1F LT PUSH3 0xE6 JUMPI DUP1 MLOAD PUSH1 0xFF NOT AND DUP4 DUP1 ADD OR DUP6 SSTORE PUSH3 0x117 JUMP JUMPDEST DUP3 DUP1 ADD PUSH1 0x1 ADD DUP6 SSTORE DUP3 ISZERO PUSH3 0x117 JUMPI SWAP2 DUP3 ADD JUMPDEST DUP3 DUP2 GT ISZERO PUSH3 0x116 JUMPI DUP3 MLOAD DUP3 SSTORE SWAP2 PUSH1 0x20 ADD SWAP2 SWAP1 PUSH1 0x1 ADD SWAP1 PUSH3 0xF9 JUMP JUMPDEST JUMPDEST POP SWAP1 POP PUSH3 0x126 SWAP2 SWAP1 PUSH3 0x12A JUMP JUMPDEST POP SWAP1 JUMP JUMPDEST JUMPDEST DUP1 DUP3 GT ISZERO PUSH3 0x145 JUMPI PUSH1 0x0 DUP2 PUSH1 0x0 SWAP1 SSTORE POP PUSH1 0x1 ADD PUSH3 0x12B JUMP JUMPDEST POP SWAP1 JUMP JUMPDEST PUSH1 0x0 PUSH1 0x40 MLOAD SWAP1 POP SWAP1 JUMP JUMPDEST PUSH1 0x0 DUP1 REVERT JUMPDEST PUSH1 0x0 DUP1 REVERT JUMPDEST PUSH1 0x0 DUP1 REVERT JUMPDEST PUSH1 0x0 DUP1 REVERT JUMPDEST PUSH1 0x0 PUSH1 0x1F NOT PUSH1 0x1F DUP4 ADD AND SWAP1 POP SWAP2 SWAP1 POP JUMP JUMPDEST PUSH32 0x4E487B7100000000000000000000000000000000000000000000000000000000 PUSH1 0x0 MSTORE PUSH1 0x41 PUSH1 0x4 MSTORE PUSH1 0x24 PUSH1 0x0 REVERT JUMPDEST PUSH3 0x1B2 DUP3 PUSH3 0x167 JUMP JUMPDEST DUP2 ADD DUP2 DUP2 LT PUSH8 0xFFFFFFFFFFFFFFFF DUP3 GT OR ISZERO PUSH3 0x1D4 JUMPI PUSH3 0x1D3 PUSH3 0x178 JUMP JUMPDEST JUMPDEST DUP1 PUSH1 0x40 MSTORE POP POP POP JUMP JUMPDEST PUSH1 0x0 PUSH3 0x1E9 PUSH3 0x149 JUMP JUMPDEST SWAP1 POP PUSH3 0x1F7 DUP3 DUP3 PUSH3 0x1A7 JUMP JUMPDEST SWAP2 SWAP1 POP JUMP JUMPDEST PUSH1 0x0 PUSH8 0xFFFFFFFFFFFFFFFF DUP3 GT ISZERO PUSH3 0x21A JUMPI PUSH3 0x219 PUSH3 0x178 JUMP JUMPDEST JUMPDEST PUSH3 0x225 DUP3 PUSH3 0x167 JUMP JUMPDEST SWAP1 POP PUSH1 0x20 DUP2 ADD SWAP1 POP SWAP2 SWAP1 POP JUMP JUMPDEST PUSH1 0x0 JUMPDEST DUP4 DUP2 LT ISZERO PUSH3 0x252 JUMPI DUP1 DUP3 ADD MLOAD DUP2 DUP5 ADD MSTORE PUSH1 0x20 DUP2 ADD SWAP1 POP PUSH3 0x235 JUMP JUMPDEST DUP4 DUP2 GT ISZERO PUSH3 0x262 JUMPI PUSH1 0x0 DUP5 DUP5 ADD MSTORE JUMPDEST POP POP POP POP JUMP JUMPDEST PUSH1 0x0 PUSH3 0x27F PUSH3 0x279 DUP5 PUSH3 0x1FC JUMP JUMPDEST PUSH3 0x1DD JUMP JUMPDEST SWAP1 POP DUP3 DUP2 MSTORE PUSH1 0x20 DUP2 ADD DUP5 DUP5 DUP5 ADD GT ISZERO PUSH3 0x29E JUMPI PUSH3 0x29D PUSH3 0x162 JUMP JUMPDEST JUMPDEST PUSH3 0x2AB DUP5 DUP3 DUP6 PUSH3 0x232 JUMP JUMPDEST POP SWAP4 SWAP3 POP POP POP JUMP JUMPDEST PUSH1 0x0 DUP3 PUSH1 0x1F DUP4 ADD SLT PUSH3 0x2CB JUMPI PUSH3 0x2CA PUSH3 0x15D JUMP JUMPDEST JUMPDEST DUP2 MLOAD PUSH3 0x2DD DUP5 DUP3 PUSH1 0x20 DUP7 ADD PUSH3 0x268 JUMP JUMPDEST SWAP2 POP POP SWAP3 SWAP2 POP POP JUMP JUMPDEST PUSH1 0x0 PUSH20 0xFFFFFFFFFFFFFFFFFFFFFFFFFFFFFFFFFFFFFFFF DUP3 AND SWAP1 POP SWAP2 SWAP1 POP JUMP JUMPDEST PUSH1 0x0 PUSH3 0x313 DUP3 PUSH3 0x2E6 JUMP JUMPDEST SWAP1 POP SWAP2 SWAP1 POP JUMP JUMPDEST PUSH3 0x325 DUP2 PUSH3 0x306 JUMP JUMPDEST DUP2 EQ PUSH3 0x331 JUMPI PUSH1 0x0 DUP1 REVERT JUMPDEST POP JUMP JUMPDEST PUSH1 0x0 DUP2 MLOAD SWAP1 POP PUSH3 0x345 DUP2 PUSH3 0x31A JUMP JUMPDEST SWAP3 SWAP2 POP POP JUMP JUMPDEST PUSH1 0x0 DUP1 PUSH1 0x40 DUP4 DUP6 SUB SLT ISZERO PUSH3 0x365 JUMPI PUSH3 0x364 PUSH3 0x153 JUMP JUMPDEST JUMPDEST PUSH1 0x0 DUP4 ADD MLOAD PUSH8 0xFFFFFFFFFFFFFFFF DUP2 GT ISZERO PUSH3 0x386 JUMPI PUSH3 0x385 PUSH3 0x158 JUMP JUMPDEST JUMPDEST PUSH3 0x394 DUP6 DUP3 DUP7 ADD PUSH3 0x2B3 JUMP JUMPDEST SWAP3 POP POP PUSH1 0x20 PUSH3 0x3A7 DUP6 DUP3 DUP7 ADD PUSH3 0x334 JUMP JUMPDEST SWAP2 POP POP SWAP3 POP SWAP3 SWAP1 POP JUMP JUMPDEST PUSH32 0x4E487B7100000000000000000000000000000000000000000000000000000000 PUSH1 0x0 MSTORE PUSH1 0x22 PUSH1 0x4 MSTORE PUSH1 0x24 PUSH1 0x0 REVERT JUMPDEST PUSH1 0x0 PUSH1 0x2 DUP3 DIV SWAP1 POP PUSH1 0x1 DUP3 AND DUP1 PUSH3 0x3F9 JUMPI PUSH1 0x7F DUP3 AND SWAP2 POP JUMPDEST PUSH1 0x20 DUP3 LT DUP2 EQ ISZERO PUSH3 0x410 JUMPI PUSH3 0x40F PUSH3 0x3B1 JUMP JUMPDEST JUMPDEST POP SWAP2 SWAP1 POP JUMP JUMPDEST PUSH2 0xE52 DUP1 PUSH3 0x426 PUSH1 0x0 CODECOPY PUSH1 0x0 RETURN INVALID PUSH1 0x80 PUSH1 0x40 MSTORE CALLVALUE DUP1 ISZERO PUSH2 0x10 JUMPI PUSH1 0x0 DUP1 REVERT JUMPDEST POP PUSH1 0x4 CALLDATASIZE LT PUSH2 0xA9 JUMPI PUSH1 0x0 CALLDATALOAD PUSH1 0xE0 SHR DUP1 PUSH4 0x85E8E7A7 GT PUSH2 0x71 JUMPI DUP1 PUSH4 0x85E8E7A7 EQ PUSH2 0x131 JUMPI DUP1 PUSH4 0x8C08A4DC EQ PUSH2 0x14F JUMPI DUP1 PUSH4 0xA3EC138D EQ PUSH2 0x16B JUMPI DUP1 PUSH4 0xA9A981A3 EQ PUSH2 0x19B JUMPI DUP1 PUSH4 0xAD71F8DC EQ PUSH2 0x1B9 JUMPI DUP1 PUSH4 0xF851A440 EQ PUSH2 0x1D5 JUMPI PUSH2 0xA9 JUMP JUMPDEST DUP1 PUSH4 0x12FA6FEB EQ PUSH2 0xAE JUMPI DUP1 PUSH4 0x1F2698AB EQ PUSH2 0xCC JUMPI DUP1 PUSH4 0x3477EE2E EQ PUSH2 0xEA JUMPI DUP1 PUSH4 0x59F78468 EQ PUSH2 0x11D JUMPI DUP1 PUSH4 0x62D73EB8 EQ PUSH2 0x127 JUMPI JUMPDEST PUSH1 0x0 DUP1 REVERT JUMPDEST PUSH2 0xB6 PUSH2 0x1F3 JUMP JUMPDEST PUSH1 0x40 MLOAD PUSH2 0xC3 SWAP2 SWAP1 PUSH2 0x8E1 JUMP JUMPDEST PUSH1 0x40 MLOAD DUP1 SWAP2 SUB SWAP1 RETURN JUMPDEST PUSH2 0xD4 PUSH2 0x206 JUMP JUMPDEST PUSH1 0x40 MLOAD PUSH2 0xE1 SWAP2 SWAP1 PUSH2 0x8E1 JUMP JUMPDEST PUSH1 0x40 MLOAD DUP1 SWAP2 SUB SWAP1 RETURN JUMPDEST PUSH2 0x104 PUSH1 0x4 DUP1 CALLDATASIZE SUB DUP2 ADD SWAP1 PUSH2 0xFF SWAP2 SWAP1 PUSH2 0x946 JUMP JUMPDEST PUSH2 0x219 JUMP JUMPDEST PUSH1 0x40 MLOAD PUSH2 0x114 SWAP5 SWAP4 SWAP3 SWAP2 SWAP1 PUSH2 0xA1B JUMP JUMPDEST PUSH1 0x40 MLOAD DUP1 SWAP2 SUB SWAP1 RETURN JUMPDEST PUSH2 0x125 PUSH2 0x3E1 JUMP JUMPDEST STOP JUMPDEST PUSH2 0x12F PUSH2 0x48C JUMP JUMPDEST STOP JUMPDEST PUSH2 0x139 PUSH2 0x538 JUMP JUMPDEST PUSH1 0x40 MLOAD PUSH2 0x146 SWAP2 SWAP1 PUSH2 0xA75 JUMP JUMPDEST PUSH1 0x40 MLOAD DUP1 SWAP2 SUB SWAP1 RETURN JUMPDEST PUSH2 0x169 PUSH1 0x4 DUP1 CALLDATASIZE SUB DUP2 ADD SWAP1 PUSH2 0x164 SWAP2 SWAP1 PUSH2 0x946 JUMP JUMPDEST PUSH2 0x5C6 JUMP JUMPDEST STOP JUMPDEST PUSH2 0x185 PUSH1 0x4 DUP1 CALLDATASIZE SUB DUP2 ADD SWAP1 PUSH2 0x180 SWAP2 SWAP1 PUSH2 0xAF5 JUMP JUMPDEST PUSH2 0x6C2 JUMP JUMPDEST PUSH1 0x40 MLOAD PUSH2 0x192 SWAP2 SWAP1 PUSH2 0x8E1 JUMP JUMPDEST PUSH1 0x40 MLOAD DUP1 SWAP2 SUB SWAP1 RETURN JUMPDEST PUSH2 0x1A3 PUSH2 0x6E2 JUMP JUMPDEST PUSH1 0x40 MLOAD PUSH2 0x1B0 SWAP2 SWAP1 PUSH2 0xB22 JUMP JUMPDEST PUSH1 0x40 MLOAD DUP1 SWAP2 SUB SWAP1 RETURN JUMPDEST PUSH2 0x1D3 PUSH1 0x4 DUP1 CALLDATASIZE SUB DUP2 ADD SWAP1 PUSH2 0x1CE SWAP2 SWAP1 PUSH2 0xC72 JUMP JUMPDEST PUSH2 0x6E8 JUMP JUMPDEST STOP JUMPDEST PUSH2 0x1DD PUSH2 0x7FD JUMP JUMPDEST PUSH1 0x40 MLOAD PUSH2 0x1EA SWAP2 SWAP1 PUSH2 0xD28 JUMP JUMPDEST PUSH1 0x40 MLOAD DUP1 SWAP2 SUB SWAP1 RETURN JUMPDEST PUSH1 0x5 PUSH1 0x1 SWAP1 SLOAD SWAP1 PUSH2 0x100 EXP SWAP1 DIV PUSH1 0xFF AND DUP2 JUMP JUMPDEST PUSH1 0x5 PUSH1 0x0 SWAP1 SLOAD SWAP1 PUSH2 0x100 EXP SWAP1 DIV PUSH1 0xFF AND DUP2 JUMP JUMPDEST PUSH1 0x0 PUSH1 0x20 MSTORE DUP1 PUSH1 0x0 MSTORE PUSH1 0x40 PUSH1 0x0 KECCAK256 PUSH1 0x0 SWAP2 POP SWAP1 POP DUP1 PUSH1 0x0 ADD DUP1 SLOAD PUSH2 0x23C SWAP1 PUSH2 0xD72 JUMP JUMPDEST DUP1 PUSH1 0x1F ADD PUSH1 0x20 DUP1 SWAP2 DIV MUL PUSH1 0x20 ADD PUSH1 0x40 MLOAD SWAP1 DUP2 ADD PUSH1 0x40 MSTORE DUP1 SWAP3 SWAP2 SWAP1 DUP2 DUP2 MSTORE PUSH1 0x20 ADD DUP3 DUP1 SLOAD PUSH2 0x268 SWAP1 PUSH2 0xD72 JUMP JUMPDEST DUP1 ISZERO PUSH2 0x2B5 JUMPI DUP1 PUSH1 0x1F LT PUSH2 0x28A JUMPI PUSH2 0x100 DUP1 DUP4 SLOAD DIV MUL DUP4 MSTORE SWAP2 PUSH1 0x20 ADD SWAP2 PUSH2 0x2B5 JUMP JUMPDEST DUP3 ADD SWAP2 SWAP1 PUSH1 0x0 MSTORE PUSH1 0x20 PUSH1 0x0 KECCAK256 SWAP1 JUMPDEST DUP2 SLOAD DUP2 MSTORE SWAP1 PUSH1 0x1 ADD SWAP1 PUSH1 0x20 ADD DUP1 DUP4 GT PUSH2 0x298 JUMPI DUP3 SWAP1 SUB PUSH1 0x1F AND DUP3 ADD SWAP2 JUMPDEST POP POP POP POP POP SWAP1 DUP1 PUSH1 0x1 ADD DUP1 SLOAD PUSH2 0x2CA SWAP1 PUSH2 0xD72 JUMP JUMPDEST DUP1 PUSH1 0x1F ADD PUSH1 0x20 DUP1 SWAP2 DIV MUL PUSH1 0x20 ADD PUSH1 0x40 MLOAD SWAP1 DUP2 ADD PUSH1 0x40 MSTORE DUP1 SWAP3 SWAP2 SWAP1 DUP2 DUP2 MSTORE PUSH1 0x20 ADD DUP3 DUP1 SLOAD PUSH2 0x2F6 SWAP1 PUSH2 0xD72 JUMP JUMPDEST DUP1 ISZERO PUSH2 0x343 JUMPI DUP1 PUSH1 0x1F LT PUSH2 0x318 JUMPI PUSH2 0x100 DUP1 DUP4 SLOAD DIV MUL DUP4 MSTORE SWAP2 PUSH1 0x20 ADD SWAP2 PUSH2 0x343 JUMP JUMPDEST DUP3 ADD SWAP2 SWAP1 PUSH1 0x0 MSTORE PUSH1 0x20 PUSH1 0x0 KECCAK256 SWAP1 JUMPDEST DUP2 SLOAD DUP2 MSTORE SWAP1 PUSH1 0x1 ADD SWAP1 PUSH1 0x20 ADD DUP1 DUP4 GT PUSH2 0x326 JUMPI DUP3 SWAP1 SUB PUSH1 0x1F AND DUP3 ADD SWAP2 JUMPDEST POP POP POP POP POP SWAP1 DUP1 PUSH1 0x2 ADD DUP1 SLOAD PUSH2 0x358 SWAP1 PUSH2 0xD72 JUMP JUMPDEST DUP1 PUSH1 0x1F ADD PUSH1 0x20 DUP1 SWAP2 DIV MUL PUSH1 0x20 ADD PUSH1 0x40 MLOAD SWAP1 DUP2 ADD PUSH1 0x40 MSTORE DUP1 SWAP3 SWAP2 SWAP1 DUP2 DUP2 MSTORE PUSH1 0x20 ADD DUP3 DUP1 SLOAD PUSH2 0x384 SWAP1 PUSH2 0xD72 JUMP JUMPDEST DUP1 ISZERO PUSH2 0x3D1 JUMPI DUP1 PUSH1 0x1F LT PUSH2 0x3A6 JUMPI PUSH2 0x100 DUP1 DUP4 SLOAD DIV MUL DUP4 MSTORE SWAP2 PUSH1 0x20 ADD SWAP2 PUSH2 0x3D1 JUMP JUMPDEST DUP3 ADD SWAP2 SWAP1 PUSH1 0x0 MSTORE PUSH1 0x20 PUSH1 0x0 KECCAK256 SWAP1 JUMPDEST DUP2 SLOAD DUP2 MSTORE SWAP1 PUSH1 0x1 ADD SWAP1 PUSH1 0x20 ADD DUP1 DUP4 GT PUSH2 0x3B4 JUMPI DUP3 SWAP1 SUB PUSH1 0x1F AND DUP3 ADD SWAP2 JUMPDEST POP POP POP POP POP SWAP1 DUP1 PUSH1 0x3 ADD SLOAD SWAP1 POP DUP5 JUMP JUMPDEST PUSH1 0x2 PUSH1 0x0 SWAP1 SLOAD SWAP1 PUSH2 0x100 EXP SWAP1 DIV PUSH20 0xFFFFFFFFFFFFFFFFFFFFFFFFFFFFFFFFFFFFFFFF AND PUSH20 0xFFFFFFFFFFFFFFFFFFFFFFFFFFFFFFFFFFFFFFFF AND CALLER PUSH20 0xFFFFFFFFFFFFFFFFFFFFFFFFFFFFFFFFFFFFFFFF AND EQ PUSH2 0x43B JUMPI PUSH1 0x0 DUP1 REVERT JUMPDEST PUSH1 0x5 PUSH1 0x0 SWAP1 SLOAD SWAP1 PUSH2 0x100 EXP SWAP1 DIV PUSH1 0xFF AND PUSH2 0x454 JUMPI PUSH1 0x0 DUP1 REVERT JUMPDEST PUSH1 0x0 PUSH1 0x5 PUSH1 0x0 PUSH2 0x100 EXP DUP2 SLOAD DUP2 PUSH1 0xFF MUL NOT AND SWAP1 DUP4 ISZERO ISZERO MUL OR SWAP1 SSTORE POP PUSH1 0x1 PUSH1 0x5 PUSH1 0x1 PUSH2 0x100 EXP DUP2 SLOAD DUP2 PUSH1 0xFF MUL NOT AND SWAP1 DUP4 ISZERO ISZERO MUL OR SWAP1 SSTORE POP JUMP JUMPDEST PUSH1 0x2 PUSH1 0x0 SWAP1 SLOAD SWAP1 PUSH2 0x100 EXP SWAP1 DIV PUSH20 0xFFFFFFFFFFFFFFFFFFFFFFFFFFFFFFFFFFFFFFFF AND PUSH20 0xFFFFFFFFFFFFFFFFFFFFFFFFFFFFFFFFFFFFFFFF AND CALLER PUSH20 0xFFFFFFFFFFFFFFFFFFFFFFFFFFFFFFFFFFFFFFFF AND EQ PUSH2 0x4E6 JUMPI PUSH1 0x0 DUP1 REVERT JUMPDEST PUSH1 0x5 PUSH1 0x0 SWAP1 SLOAD SWAP1 PUSH2 0x100 EXP SWAP1 DIV PUSH1 0xFF AND ISZERO PUSH2 0x500 JUMPI PUSH1 0x0 DUP1 REVERT JUMPDEST PUSH1 0x1 PUSH1 0x5 PUSH1 0x0 PUSH2 0x100 EXP DUP2 SLOAD DUP2 PUSH1 0xFF MUL NOT AND SWAP1 DUP4 ISZERO ISZERO MUL OR SWAP1 SSTORE POP PUSH1 0x1 PUSH1 0x5 PUSH1 0x1 PUSH2 0x100 EXP DUP2 SLOAD DUP2 PUSH1 0xFF MUL NOT AND SWAP1 DUP4 ISZERO ISZERO MUL OR SWAP1 SSTORE POP JUMP JUMPDEST PUSH1 0x4 DUP1 SLOAD PUSH2 0x545 SWAP1 PUSH2 0xD72 JUMP JUMPDEST DUP1 PUSH1 0x1F ADD PUSH1 0x20 DUP1 SWAP2 DIV MUL PUSH1 0x20 ADD PUSH1 0x40 MLOAD SWAP1 DUP2 ADD PUSH1 0x40 MSTORE DUP1 SWAP3 SWAP2 SWAP1 DUP2 DUP2 MSTORE PUSH1 0x20 ADD DUP3 DUP1 SLOAD PUSH2 0x571 SWAP1 PUSH2 0xD72 JUMP JUMPDEST DUP1 ISZERO PUSH2 0x5BE JUMPI DUP1 PUSH1 0x1F LT PUSH2 0x593 JUMPI PUSH2 0x100 DUP1 DUP4 SLOAD DIV MUL DUP4 MSTORE SWAP2 PUSH1 0x20 ADD SWAP2 PUSH2 0x5BE JUMP JUMPDEST DUP3 ADD SWAP2 SWAP1 PUSH1 0x0 MSTORE PUSH1 0x20 PUSH1 0x0 KECCAK256 SWAP1 JUMPDEST DUP2 SLOAD DUP2 MSTORE SWAP1 PUSH1 0x1 ADD SWAP1 PUSH1 0x20 ADD DUP1 DUP4 GT PUSH2 0x5A1 JUMPI DUP3 SWAP1 SUB PUSH1 0x1F AND DUP3 ADD SWAP2 JUMPDEST POP POP POP POP POP DUP2 JUMP JUMPDEST PUSH1 0x5 PUSH1 0x0 SWAP1 SLOAD SWAP1 PUSH2 0x100 EXP SWAP1 DIV PUSH1 0xFF AND PUSH2 0x5DF JUMPI PUSH1 0x0 DUP1 REVERT JUMPDEST PUSH1 0x0 DUP1 PUSH1 0x0 DUP4 DUP2 MSTORE PUSH1 0x20 ADD SWAP1 DUP2 MSTORE PUSH1 0x20 ADD PUSH1 0x0 KECCAK256 SWAP1 POP PUSH1 0x3 PUSH1 0x0 CALLER PUSH20 0xFFFFFFFFFFFFFFFFFFFFFFFFFFFFFFFFFFFFFFFF AND PUSH20 0xFFFFFFFFFFFFFFFFFFFFFFFFFFFFFFFFFFFFFFFF AND DUP2 MSTORE PUSH1 0x20 ADD SWAP1 DUP2 MSTORE PUSH1 0x20 ADD PUSH1 0x0 KECCAK256 PUSH1 0x0 SWAP1 SLOAD SWAP1 PUSH2 0x100 EXP SWAP1 DIV PUSH1 0xFF AND ISZERO PUSH2 0x64C JUMPI PUSH1 0x0 DUP1 REVERT JUMPDEST DUP1 PUSH1 0x3 ADD PUSH1 0x0 DUP2 SLOAD DUP1 SWAP3 SWAP2 SWAP1 PUSH2 0x661 SWAP1 PUSH2 0xDD3 JUMP JUMPDEST SWAP2 SWAP1 POP SSTORE POP PUSH1 0x1 PUSH1 0x3 PUSH1 0x0 CALLER PUSH20 0xFFFFFFFFFFFFFFFFFFFFFFFFFFFFFFFFFFFFFFFF AND PUSH20 0xFFFFFFFFFFFFFFFFFFFFFFFFFFFFFFFFFFFFFFFF AND DUP2 MSTORE PUSH1 0x20 ADD SWAP1 DUP2 MSTORE PUSH1 0x20 ADD PUSH1 0x0 KECCAK256 PUSH1 0x0 PUSH2 0x100 EXP DUP2 SLOAD DUP2 PUSH1 0xFF MUL NOT AND SWAP1 DUP4 ISZERO ISZERO MUL OR SWAP1 SSTORE POP POP POP JUMP JUMPDEST PUSH1 0x3 PUSH1 0x20 MSTORE DUP1 PUSH1 0x0 MSTORE PUSH1 0x40 PUSH1 0x0 KECCAK256 PUSH1 0x0 SWAP2 POP SLOAD SWAP1 PUSH2 0x100 EXP SWAP1 DIV PUSH1 0xFF AND DUP2 JUMP JUMPDEST PUSH1 0x1 SLOAD DUP2 JUMP JUMPDEST PUSH1 0x2 PUSH1 0x0 SWAP1 SLOAD SWAP1 PUSH2 0x100 EXP SWAP1 DIV PUSH20 0xFFFFFFFFFFFFFFFFFFFFFFFFFFFFFFFFFFFFFFFF AND PUSH20 0xFFFFFFFFFFFFFFFFFFFFFFFFFFFFFFFFFFFFFFFF AND CALLER PUSH20 0xFFFFFFFFFFFFFFFFFFFFFFFFFFFFFFFFFFFFFFFF AND EQ PUSH2 0x742 JUMPI PUSH1 0x0 DUP1 REVERT JUMPDEST PUSH1 0x5 PUSH1 0x1 SWAP1 SLOAD SWAP1 PUSH2 0x100 EXP SWAP1 DIV PUSH1 0xFF AND ISZERO PUSH2 0x75C JUMPI PUSH1 0x0 DUP1 REVERT JUMPDEST PUSH1 0x5 PUSH1 0x0 SWAP1 SLOAD SWAP1 PUSH2 0x100 EXP SWAP1 DIV PUSH1 0xFF AND ISZERO PUSH2 0x776 JUMPI PUSH1 0x0 DUP1 REVERT JUMPDEST PUSH1 0x0 DUP1 PUSH1 0x0 PUSH1 0x1 PUSH1 0x0 DUP2 SLOAD DUP1 SWAP3 SWAP2 SWAP1 PUSH2 0x78E SWAP1 PUSH2 0xDD3 JUMP JUMPDEST SWAP2 SWAP1 POP SSTORE DUP2 MSTORE PUSH1 0x20 ADD SWAP1 DUP2 MSTORE PUSH1 0x20 ADD PUSH1 0x0 KECCAK256 SWAP1 POP DUP4 DUP2 PUSH1 0x0 ADD SWAP1 DUP1 MLOAD SWAP1 PUSH1 0x20 ADD SWAP1 PUSH2 0x7BA SWAP3 SWAP2 SWAP1 PUSH2 0x823 JUMP JUMPDEST POP DUP3 DUP2 PUSH1 0x1 ADD SWAP1 DUP1 MLOAD SWAP1 PUSH1 0x20 ADD SWAP1 PUSH2 0x7D3 SWAP3 SWAP2 SWAP1 PUSH2 0x823 JUMP JUMPDEST POP DUP2 DUP2 PUSH1 0x2 ADD SWAP1 DUP1 MLOAD SWAP1 PUSH1 0x20 ADD SWAP1 PUSH2 0x7EC SWAP3 SWAP2 SWAP1 PUSH2 0x823 JUMP JUMPDEST POP PUSH1 0x0 DUP2 PUSH1 0x3 ADD DUP2 SWAP1 SSTORE POP POP POP POP POP JUMP JUMPDEST PUSH1 0x2 PUSH1 0x0 SWAP1 SLOAD SWAP1 PUSH2 0x100 EXP SWAP1 DIV PUSH20 0xFFFFFFFFFFFFFFFFFFFFFFFFFFFFFFFFFFFFFFFF AND DUP2 JUMP JUMPDEST DUP3 DUP1 SLOAD PUSH2 0x82F SWAP1 PUSH2 0xD72 JUMP JUMPDEST SWAP1 PUSH1 0x0 MSTORE PUSH1 0x20 PUSH1 0x0 KECCAK256 SWAP1 PUSH1 0x1F ADD PUSH1 0x20 SWAP1 DIV DUP2 ADD SWAP3 DUP3 PUSH2 0x851 JUMPI PUSH1 0x0 DUP6 SSTORE PUSH2 0x898 JUMP JUMPDEST DUP3 PUSH1 0x1F LT PUSH2 0x86A JUMPI DUP1 MLOAD PUSH1 0xFF NOT AND DUP4 DUP1 ADD OR DUP6 SSTORE PUSH2 0x898 JUMP JUMPDEST DUP3 DUP1 ADD PUSH1 0x1 ADD DUP6 SSTORE DUP3 ISZERO PUSH2 0x898 JUMPI SWAP2 DUP3 ADD JUMPDEST DUP3 DUP2 GT ISZERO PUSH2 0x897 JUMPI DUP3 MLOAD DUP3 SSTORE SWAP2 PUSH1 0x20 ADD SWAP2 SWAP1 PUSH1 0x1 ADD SWAP1 PUSH2 0x87C JUMP JUMPDEST JUMPDEST POP SWAP1 POP PUSH2 0x8A5 SWAP2 SWAP1 PUSH2 0x8A9 JUMP JUMPDEST POP SWAP1 JUMP JUMPDEST JUMPDEST DUP1 DUP3 GT ISZERO PUSH2 0x8C2 JUMPI PUSH1 0x0 DUP2 PUSH1 0x0 SWAP1 SSTORE POP PUSH1 0x1 ADD PUSH2 0x8AA JUMP JUMPDEST POP SWAP1 JUMP JUMPDEST PUSH1 0x0 DUP2 ISZERO ISZERO SWAP1 POP SWAP2 SWAP1 POP JUMP JUMPDEST PUSH2 0x8DB DUP2 PUSH2 0x8C6 JUMP JUMPDEST DUP3 MSTORE POP POP JUMP JUMPDEST PUSH1 0x0 PUSH1 0x20 DUP3 ADD SWAP1 POP PUSH2 0x8F6 PUSH1 0x0 DUP4 ADD DUP5 PUSH2 0x8D2 JUMP JUMPDEST SWAP3 SWAP2 POP POP JUMP JUMPDEST PUSH1 0x0 PUSH1 0x40 MLOAD SWAP1 POP SWAP1 JUMP JUMPDEST PUSH1 0x0 DUP1 REVERT JUMPDEST PUSH1 0x0 DUP1 REVERT JUMPDEST PUSH1 0x0 DUP2 SWAP1 POP SWAP2 SWAP1 POP JUMP JUMPDEST PUSH2 0x923 DUP2 PUSH2 0x910 JUMP JUMPDEST DUP2 EQ PUSH2 0x92E JUMPI PUSH1 0x0 DUP1 REVERT JUMPDEST POP JUMP JUMPDEST PUSH1 0x0 DUP2 CALLDATALOAD SWAP1 POP PUSH2 0x940 DUP2 PUSH2 0x91A JUMP JUMPDEST SWAP3 SWAP2 POP POP JUMP JUMPDEST PUSH1 0x0 PUSH1 0x20 DUP3 DUP5 SUB SLT ISZERO PUSH2 0x95C JUMPI PUSH2 0x95B PUSH2 0x906 JUMP JUMPDEST JUMPDEST PUSH1 0x0 PUSH2 0x96A DUP5 DUP3 DUP6 ADD PUSH2 0x931 JUMP JUMPDEST SWAP2 POP POP SWAP3 SWAP2 POP POP JUMP JUMPDEST PUSH1 0x0 DUP2 MLOAD SWAP1 POP SWAP2 SWAP1 POP JUMP JUMPDEST PUSH1 0x0 DUP3 DUP3 MSTORE PUSH1 0x20 DUP3 ADD SWAP1 POP SWAP3 SWAP2 POP POP JUMP JUMPDEST PUSH1 0x0 JUMPDEST DUP4 DUP2 LT ISZERO PUSH2 0x9AD JUMPI DUP1 DUP3 ADD MLOAD DUP2 DUP5 ADD MSTORE PUSH1 0x20 DUP2 ADD SWAP1 POP PUSH2 0x992 JUMP JUMPDEST DUP4 DUP2 GT ISZERO PUSH2 0x9BC JUMPI PUSH1 0x0 DUP5 DUP5 ADD MSTORE JUMPDEST POP POP POP POP JUMP JUMPDEST PUSH1 0x0 PUSH1 0x1F NOT PUSH1 0x1F DUP4 ADD AND SWAP1 POP SWAP2 SWAP1 POP JUMP JUMPDEST PUSH1 0x0 PUSH2 0x9DE DUP3 PUSH2 0x973 JUMP JUMPDEST PUSH2 0x9E8 DUP2 DUP6 PUSH2 0x97E JUMP JUMPDEST SWAP4 POP PUSH2 0x9F8 DUP2 DUP6 PUSH1 0x20 DUP7 ADD PUSH2 0x98F JUMP JUMPDEST PUSH2 0xA01 DUP2 PUSH2 0x9C2 JUMP JUMPDEST DUP5 ADD SWAP2 POP POP SWAP3 SWAP2 POP POP JUMP JUMPDEST PUSH2 0xA15 DUP2 PUSH2 0x910 JUMP JUMPDEST DUP3 MSTORE POP POP JUMP JUMPDEST PUSH1 0x0 PUSH1 0x80 DUP3 ADD SWAP1 POP DUP2 DUP2 SUB PUSH1 0x0 DUP4 ADD MSTORE PUSH2 0xA35 DUP2 DUP8 PUSH2 0x9D3 JUMP JUMPDEST SWAP1 POP DUP2 DUP2 SUB PUSH1 0x20 DUP4 ADD MSTORE PUSH2 0xA49 DUP2 DUP7 PUSH2 0x9D3 JUMP JUMPDEST SWAP1 POP DUP2 DUP2 SUB PUSH1 0x40 DUP4 ADD MSTORE PUSH2 0xA5D DUP2 DUP6 PUSH2 0x9D3 JUMP JUMPDEST SWAP1 POP PUSH2 0xA6C PUSH1 0x60 DUP4 ADD DUP5 PUSH2 0xA0C JUMP JUMPDEST SWAP6 SWAP5 POP POP POP POP POP JUMP JUMPDEST PUSH1 0x0 PUSH1 0x20 DUP3 ADD SWAP1 POP DUP2 DUP2 SUB PUSH1 0x0 DUP4 ADD MSTORE PUSH2 0xA8F DUP2 DUP5 PUSH2 0x9D3 JUMP JUMPDEST SWAP1 POP SWAP3 SWAP2 POP POP JUMP JUMPDEST PUSH1 0x0 PUSH20 0xFFFFFFFFFFFFFFFFFFFFFFFFFFFFFFFFFFFFFFFF DUP3 AND SWAP1 POP SWAP2 SWAP1 POP JUMP JUMPDEST PUSH1 0x0 PUSH2 0xAC2 DUP3 PUSH2 0xA97 JUMP JUMPDEST SWAP1 POP SWAP2 SWAP1 POP JUMP JUMPDEST PUSH2 0xAD2 DUP2 PUSH2 0xAB7 JUMP JUMPDEST DUP2 EQ PUSH2 0xADD JUMPI PUSH1 0x0 DUP1 REVERT JUMPDEST POP JUMP JUMPDEST PUSH1 0x0 DUP2 CALLDATALOAD SWAP1 POP PUSH2 0xAEF DUP2 PUSH2 0xAC9 JUMP JUMPDEST SWAP3 SWAP2 POP POP JUMP JUMPDEST PUSH1 0x0 PUSH1 0x20 DUP3 DUP5 SUB SLT ISZERO PUSH2 0xB0B JUMPI PUSH2 0xB0A PUSH2 0x906 JUMP JUMPDEST JUMPDEST PUSH1 0x0 PUSH2 0xB19 DUP5 DUP3 DUP6 ADD PUSH2 0xAE0 JUMP JUMPDEST SWAP2 POP POP SWAP3 SWAP2 POP POP JUMP JUMPDEST PUSH1 0x0 PUSH1 0x20 DUP3 ADD SWAP1 POP PUSH2 0xB37 PUSH1 0x0 DUP4 ADD DUP5 PUSH2 0xA0C JUMP JUMPDEST SWAP3 SWAP2 POP POP JUMP JUMPDEST PUSH1 0x0 DUP1 REVERT JUMPDEST PUSH1 0x0 DUP1 REVERT JUMPDEST PUSH32 0x4E487B7100000000000000000000000000000000000000000000000000000000 PUSH1 0x0 MSTORE PUSH1 0x41 PUSH1 0x4 MSTORE PUSH1 0x24 PUSH1 0x0 REVERT JUMPDEST PUSH2 0xB7F DUP3 PUSH2 0x9C2 JUMP JUMPDEST DUP2 ADD DUP2 DUP2 LT PUSH8 0xFFFFFFFFFFFFFFFF DUP3 GT OR ISZERO PUSH2 0xB9E JUMPI PUSH2 0xB9D PUSH2 0xB47 JUMP JUMPDEST JUMPDEST DUP1 PUSH1 0x40 MSTORE POP POP POP JUMP JUMPDEST PUSH1 0x0 PUSH2 0xBB1 PUSH2 0x8FC JUMP JUMPDEST SWAP1 POP PUSH2 0xBBD DUP3 DUP3 PUSH2 0xB76 JUMP JUMPDEST SWAP2 SWAP1 POP JUMP JUMPDEST PUSH1 0x0 PUSH8 0xFFFFFFFFFFFFFFFF DUP3 GT ISZERO PUSH2 0xBDD JUMPI PUSH2 0xBDC PUSH2 0xB47 JUMP JUMPDEST JUMPDEST PUSH2 0xBE6 DUP3 PUSH2 0x9C2 JUMP JUMPDEST SWAP1 POP PUSH1 0x20 DUP2 ADD SWAP1 POP SWAP2 SWAP1 POP JUMP JUMPDEST DUP3 DUP2 DUP4 CALLDATACOPY PUSH1 0x0 DUP4 DUP4 ADD MSTORE POP POP POP JUMP JUMPDEST PUSH1 0x0 PUSH2 0xC15 PUSH2 0xC10 DUP5 PUSH2 0xBC2 JUMP JUMPDEST PUSH2 0xBA7 JUMP JUMPDEST SWAP1 POP DUP3 DUP2 MSTORE PUSH1 0x20 DUP2 ADD DUP5 DUP5 DUP5 ADD GT ISZERO PUSH2 0xC31 JUMPI PUSH2 0xC30 PUSH2 0xB42 JUMP JUMPDEST JUMPDEST PUSH2 0xC3C DUP5 DUP3 DUP6 PUSH2 0xBF3 JUMP JUMPDEST POP SWAP4 SWAP3 POP POP POP JUMP JUMPDEST PUSH1 0x0 DUP3 PUSH1 0x1F DUP4 ADD SLT PUSH2 0xC59 JUMPI PUSH2 0xC58 PUSH2 0xB3D JUMP JUMPDEST JUMPDEST DUP2 CALLDATALOAD PUSH2 0xC69 DUP5 DUP3 PUSH1 0x20 DUP7 ADD PUSH2 0xC02 JUMP JUMPDEST SWAP2 POP POP SWAP3 SWAP2 POP POP JUMP JUMPDEST PUSH1 0x0 DUP1 PUSH1 0x0 PUSH1 0x60 DUP5 DUP7 SUB SLT ISZERO PUSH2 0xC8B JUMPI PUSH2 0xC8A PUSH2 0x906 JUMP JUMPDEST JUMPDEST PUSH1 0x0 DUP5 ADD CALLDATALOAD PUSH8 0xFFFFFFFFFFFFFFFF DUP2 GT ISZERO PUSH2 0xCA9 JUMPI PUSH2 0xCA8 PUSH2 0x90B JUMP JUMPDEST JUMPDEST PUSH2 0xCB5 DUP7 DUP3 DUP8 ADD PUSH2 0xC44 JUMP JUMPDEST SWAP4 POP POP PUSH1 0x20 DUP5 ADD CALLDATALOAD PUSH8 0xFFFFFFFFFFFFFFFF DUP2 GT ISZERO PUSH2 0xCD6 JUMPI PUSH2 0xCD5 PUSH2 0x90B JUMP JUMPDEST JUMPDEST PUSH2 0xCE2 DUP7 DUP3 DUP8 ADD PUSH2 0xC44 JUMP JUMPDEST SWAP3 POP POP PUSH1 0x40 DUP5 ADD CALLDATALOAD PUSH8 0xFFFFFFFFFFFFFFFF DUP2 GT ISZERO PUSH2 0xD03 JUMPI PUSH2 0xD02 PUSH2 0x90B JUMP JUMPDEST JUMPDEST PUSH2 0xD0F DUP7 DUP3 DUP8 ADD PUSH2 0xC44 JUMP JUMPDEST SWAP2 POP POP SWAP3 POP SWAP3 POP SWAP3 JUMP JUMPDEST PUSH2 0xD22 DUP2 PUSH2 0xAB7 JUMP JUMPDEST DUP3 MSTORE POP POP JUMP JUMPDEST PUSH1 0x0 PUSH1 0x20 DUP3 ADD SWAP1 POP PUSH2 0xD3D PUSH1 0x0 DUP4 ADD DUP5 PUSH2 0xD19 JUMP JUMPDEST SWAP3 SWAP2 POP POP JUMP JUMPDEST PUSH32 0x4E487B7100000000000000000000000000000000000000000000000000000000 PUSH1 0x0 MSTORE PUSH1 0x22 PUSH1 0x4 MSTORE PUSH1 0x24 PUSH1 0x0 REVERT JUMPDEST PUSH1 0x0 PUSH1 0x2 DUP3 DIV SWAP1 POP PUSH1 0x1 DUP3 AND DUP1 PUSH2 0xD8A JUMPI PUSH1 0x7F DUP3 AND SWAP2 POP JUMPDEST PUSH1 0x20 DUP3 LT DUP2 EQ ISZERO PUSH2 0xD9E JUMPI PUSH2 0xD9D PUSH2 0xD43 JUMP JUMPDEST JUMPDEST POP SWAP2 SWAP1 POP JUMP JUMPDEST PUSH32 0x4E487B7100000000000000000000000000000000000000000000000000000000 PUSH1 0x0 MSTORE PUSH1 0x11 PUSH1 0x4 MSTORE PUSH1 0x24 PUSH1 0x0 REVERT JUMPDEST PUSH1 0x0 PUSH2 0xDDE DUP3 PUSH2 0x910 JUMP JUMPDEST SWAP2 POP PUSH32 0xFFFFFFFFFFFFFFFFFFFFFFFFFFFFFFFFFFFFFFFFFFFFFFFFFFFFFFFFFFFFFFFF DUP3 EQ ISZERO PUSH2 0xE11 JUMPI PUSH2 0xE10 PUSH2 0xDA4 JUMP JUMPDEST JUMPDEST PUSH1 0x1 DUP3 ADD SWAP1 POP SWAP2 SWAP1 POP JUMP INVALID LOG2 PUSH5 0x6970667358 0x22 SLT KECCAK256 0xBF SGT 0x23 0xE2 SWAP6 0xD0 PUSH14 0x696AEBE92B042678445744107F2C 0xE7 PUSH8 0xC8E5EBDDCC8CDB2A XOR PUSH5 0x736F6C6343 STOP ADDMOD SIGNEXTEND STOP CALLER "},"gasEstimates":{"creation":{"codeDepositCost":"733200","executionCost":"infinite","totalCost":"infinite"},"external":{"addCandidate(string,string,string)":"infinite","admin()":"2624","candidateCount()":"2495","candidates(uint256)":"infinite","electionName()":"infinite","endElection()":"53118","ended()":"2522","startElection()":"53143","started()":"2494","voteCandidate(uint256)":"infinite","voters(address)":"2889"}},"methodIdentifiers":{"addCandidate(string,string,string)":"ad71f8dc","admin()":"f851a440","candidateCount()":"a9a981a3","candidates(uint256)":"3477ee2e","electionName()":"85e8e7a7","endElection()":"59f78468","ended()":"12fa6feb","startElection()":"62d73eb8","started()":"1f2698ab","voteCandidate(uint256)":"8c08a4dc","voters(address)":"a3ec138d"}},"storageLayout":{"storage":[{"astId":110,"contract":"Election.sol:Election","label":"candidates","offset":0,"slot":"0","type":"t_mapping(t_uint256,t_struct(Candidate)105_storage)"},{"astId":112,"contract":"Election.sol:Election","label":"candidateCount","offset":0,"slot":"1","type":"t_uint256"},{"astId":114,"contract":"Election.sol:Election","label":"admin","offset":0,"slot":"2","type":"t_address"},{"astId":118,"contract":"Election.sol:Election","label":"voters","offset":0,"slot":"3","type":"t_mapping(t_address,t_bool)"},{"astId":120,"contract":"Election.sol:Election","label":"electionName","offset":0,"slot":"4","type":"t_string_storage"},{"astId":122,"contract":"Election.sol:Election","label":"started","offset":0,"slot":"5","type":"t_bool"},{"astId":124,"contract":"Election.sol:Election","label":"ended","offset":1,"slot":"5","type":"t_bool"}],"types":{"t_address":{"encoding":"inplace","label":"address","numberOfBytes":"20"},"t_bool":{"encoding":"inplace","label":"bool","numberOfBytes":"1"},"t_mapping(t_address,t_bool)":{"encoding":"mapping","key":"t_address","label":"mapping(address => bool)","numberOfBytes":"32","value":"t_bool"},"t_mapping(t_uint256,t_struct(Candidate)105_storage)":{"encoding":"mapping","key":"t_uint256","label":"mapping(uint256 => struct Election.Candidate)","numberOfBytes":"32","value":"t_struct(Candidate)105_storage"},"t_string_storage":{"encoding":"bytes","label":"string","numberOfBytes":"32"},"t_struct(Candidate)105_storage":{"encoding":"inplace","label":"struct Election.Candidate","members":[{"astId":98,"contract":"Election.sol:Election","label":"name","offset":0,"slot":"0","type":"t_string_storage"},{"astId":100,"contract":"Election.sol:Election","label":"description","offset":0,"slot":"1","type":"t_string_storage"},{"astId":102,"contract":"Election.sol:Election","label":"url","offset":0,"slot":"2","type":"t_string_storage"},{"astId":104,"contract":"Election.sol:Election","label":"votes","offset":0,"slot":"3","type":"t_uint256"}],"numberOfBytes":"128"},"t_uint256":{"encoding":"inplace","label":"uint256","numberOfBytes":"32"}}},"userdoc":{"kind":"user","methods":{},"version":1}}